5000700000EXPLOTACION DE AGUA                     22/09/2017
6000703000000007850+000000000+000000000+000000000000000                                                                                                                                                                
6000703072000007850+000000000+000000000+000000000000000                                                                                                                                                                
6000703085000007850+000000000+000000000+000000000000000                                                                                                                                                                
6000704001000007850+000000000+000000000+000000000000000                                                                                                                                                                
6000704002000007850+000000000+000000000+000000000000000                                                                                                                                                                
6000704003000007850+000000000+000000000+000000000000000                                                                                                                                                                
6000704004000007850+000000000+000000000+000000000000000                                                                                                                                                                
6000704005000007850+000000000+000000000+000000000000000                                                                                                                                                                
6000704006000007850+000000000+000000000+000000000000000                                                                                                                                                                
6000704007000007850+000000000+000000000+000000000000000                                                                                                                                                                
6000704008000007850+000000000+000000000+000000000000000                                                                                                                                                                
6000704009000007850+000000000+000000000+000000000000000                                                                                                                                                                
6000704010000007850+000000000+000000000+000000000000000                                                                                                                                                                
6000704011000007850+000000000+000000000+000000000000000                                                                                                                                                                
6000704012000007850+000000000+000000000+000000000000000                                                                                                                                                                
6000704013000007850+000000000+000000000+000000000000000                                                                                                                                                                
6000704014000007850+000000000+000000000+000000000000000                                                                                                                                                                
6000704015000007850+000000000+000000000+000000000000000                                                                                                                                                                
6000704016000007850+000000000+000000000+000000000000000                                                                                                                                                                
6000704017000007850+000000000+000000000+000000000000000                                                                                                                                                                
6000700213000007850+000000000+000000000+000000000000000                                                                                                                                                                
6000700214000007850+000000000+000000000+000000000000000                                                                                                                                                                
6000700215000007850+000000000+000000000+000000000000000                                                                                                                                                                
6000700216000007850+000000000+000000000+000000000000000                                                                                                                                                                
6000700281000007850+000000000+000000000+000000000000000                                                                                                                                                                
6000700282000007850+000000000+000000000+000000000000000                                                                                                                                                                
6000700283000007850+000000000+000000000+000000000000000                                                                                                                                                                
6000700300000007850+000000000+000000000+000000000000000                                                                                                                                                                
6000700301000007850+000000000+000000000+000000000000000                                                                                                                                                                
6000700302000007850+000000000+000000000+000000000000000                                                                                                                                                                
6000700303000007850+000000000+000000000+000000000000000                                                                                                                                                                
6000700304000007850+000000000+000000000+000000000000000                                                                                                                                                                
6000700305000007850+000000000+000000000+000000000000000                                                                                                                                                                
6000700306000007850+000000000+000000000+000000000000000                                                                                                                                                                
6000700307000007850+000000000+000000000+000000000000000                                                                                                                                                                
6000700308000007850+000000000+000000000+000000000000000                                                                                                                                                                
6000700309000007850+000000000+000000000+000000000000000                                                                                                                                                                
6000700310000007850+000000000+000000000+000000000000000                                                                                                                                                                
6000700311000007850+000000000+000000000+000000000000000                                                                                                                                                                
6000700312000007850+000000000+000000000+000000000000000                                                                                                                                                                
6000700314000007850+000000000+000000000+000000000000000                                                                                                                                                                
6000700315000007850+000000000+000000000+000000000000000                                                                                                                                                                
6000700316000007850+000000000+000000000+000000000000000                                                                                                                                                                
6000700317000007850+000000000+000000000+000000000000000                                                                                                                                                                
6000700318000007850+000000000+000000000+000000000000000                                                                                                                                                                
6000700319000007850+000000000+000000000+000000000000000                                                                                                                                                                
6000700320000007850+000000000+000000000+000000000000000                                                                                                                                                                
6000700321000007850+000000000+000000000+000000000000000                                                                                                                                                                
6000700322000007850+000000000+000000000+000000000000000                                                                                                                                                                
6000700323000007850+000000000+000000000+000000000000000                                                                                                                                                                
6000700324000007850+000000000+000000000+000000000000000                                                                                                                                                                
6000700325000007850+000000000+000000000+000000000000000                                                                                                                                                                
6000700326000007850+000000000+000000000+000000000000000                                                                                                                                                                
6000700327000007850+000000000+000000000+000000000000000                                                                                                                                                                
6000700328000007850+000000000+000000000+000000000000000                                                                                                                                                                
6000700329000007850+000000000+000000000+000000000000000                                                                                                                                                                
6000700330000007850+000000000+000000000+000000000000000                                                                                                                                                                
6000700331000007850+000000000+000000000+000000000000000                                                                                                                                                                
6000700332000007850+000000000+000000000+000000000000000                                                                                                                                                                
6000700333000007850+000000000+000000000+000000000000000                                                                                                                                                                
6000700334000007850+000000000+000000000+000000000000000                                                                                                                                                                
6000700335000007850+000000000+000000000+000000000000000                                                                                                                                                                
6000700336000007850+000000000+000000000+000000000000000                                                                                                                                                                
6000700337000007850+000000000+000000000+000000000000000                                                                                                                                                                
6000700338000007850+000000000+000000000+000000000000000                                                                                                                                                                
6000700339000007850+000000000+000000000+000000000000000                                                                                                                                                                
6000700341000007850+000000000+000000000+000000000000000                                                                                                                                                                
6000700342000007850+000000000+000000000+000000000000000                                                                                                                                                                
6000700343000007850+000000000+000000000+000000000000000                                                                                                                                                                
6000700344000007850+000000000+000000000+000000000000000                                                                                                                                                                
6000700345000007850+000000000+000000000+000000000000000                                                                                                                                                                
6000700346000007850+000000000+000000000+000000000000000                                                                                                                                                                
6000700347000007850+000000000+000000000+000000000000000                                                                                                                                                                
6000700348000007850+000000000+000000000+000000000000000                                                                                                                                                                
6000700349000007850+000000000+000000000+000000000000000                                                                                                                                                                
6000700350000007850+000000000+000000000+000000000000000                                                                                                                                                                
6000700351000007850+000000000+000000000+000000000000000                                                                                                                                                                
6000700352000007850+000000000+000000000+000000000000000                                                                                                                                                                
6000700353000007850+000000000+000000000+000000000000000                                                                                                                                                                
6000700354000007850+000000000+000000000+000000000000000                                                                                                                                                                
6000700355000007850+000000000+000000000+000000000000000                                                                                                                                                                
6000700356000007850+000000000+000000000+000000000000000                                                                                                                                                                
6000700357000007850+000000000+000000000+000000000000000                                                                                                                                                                
6000700358000007850+000000000+000000000+000000000000000                                                                                                                                                                
6000700359000007850+000000000+000000000+000000000000000                                                                                                                                                                
6000700363000007850+000000000+000000000+000000000000000                                                                                                                                                                
6000700364000007850+000000000+000000000+000000000000000                                                                                                                                                                
6000700365000007850+000000000+000000000+000000000000000                                                                                                                                                                
6000700366000007850+000000000+000000000+000000000000000                                                                                                                                                                
6000700367000007850+000000000+000000000+000000000000000                                                                                                                                                                
6000700374000007850+000000000+000000000+000000000000000                                                                                                                                                                
6000700382000007850+000000000+000000000+000000000000000                                                                                                                                                                
6000700383000007850+000000000+000000000+000000000000000                                                                                                                                                                
6000700385000007850+000000000+000000000+000000000000000                                                                                                                                                                
6000700386000007850+000000000+000000000+000000000000000                                                                                                                                                                
6000700387000007850+000000000+000000000+000000000000000                                                                                                                                                                
6000700388000007850+000000000+000000000+000000000000000                                                                                                                                                                
6000700389000007850+000000000+000000000+000000000000000                                                                                                                                                                
6000700390000007850+000000000+000000000+000000000000000                                                                                                                                                                
6000700433000007850+000000000+000000000+000000000000000                                                                                                                                                                
6000700434000007850+000000000+000000000+000000000000000                                                                                                                                                                
6000700435000007850+000000000+000000000+000000000000000                                                                                                                                                                
6000700436000007850+000000000+000000000+000000000000000                                                                                                                                                                
6000700437000007850+000000000+000000000+000000000000000                                                                                                                                                                
6000700439000007850+000000000+000000000+000000000000000                                                                                                                                                                
6000700440000007850+000000000+000000000+000000000000000                                                                                                                                                                
6000700441000007850+000000000+000000000+000000000000000                                                                                                                                                                
6000700266000007850+000000000+000000000+000000000000000                                                                                                                                                                
6000700267000007850+000000000+000000000+000000000000000                                                                                                                                                                
6000700268000007850+000000000+000000000+000000000000000                                                                                                                                                                
6000700269000007850+000000000+000000000+000000000000000                                                                                                                                                                
6000700270000007850+000000000+000000000+000000000000000                                                                                                                                                                
6000700273000007850+000000000+000000000+000000000000000                                                                                                                                                                
6000700274000007850+000000000+000000000+000000000000000                                                                                                                                                                
6000700275000007850+000000000+000000000+000000000000000                                                                                                                                                                
6000700276000007850+000000000+000000000+000000000000000                                                                                                                                                                
6000700278000007850+000000000+000000000+000000000000000                                                                                                                                                                
6000700279000007850+000000000+000000000+000000000000000                                                                                                                                                                
6000700280000007850+000000000+000000000+000000000000000                                                                                                                                                                
6000700284000007850+000000000+000000000+000000000000000                                                                                                                                                                
6000700285000007850+000000000+000000000+000000000000000                                                                                                                                                                
6000700286000007850+000000000+000000000+000000000000000                                                                                                                                                                
6000700287000007850+000000000+000000000+000000000000000                                                                                                                                                                
6000700288000007850+000000000+000000000+000000000000000                                                                                                                                                                
6000700289000007850+000000000+000000000+000000000000000                                                                                                                                                                
6000700290000007850+000000000+000000000+000000000000000                                                                                                                                                                
6000700291000007850+000000000+000000000+000000000000000                                                                                                                                                                
6000700292000007850+000000000+000000000+000000000000000                                                                                                                                                                
6000700293000007850+000000000+000000000+000000000000000                                                                                                                                                                
6000700294000007850+000000000+000000000+000000000000000                                                                                                                                                                
6000700295000007850+000000000+000000000+000000000000000                                                                                                                                                                
6000700296000007850+000000000+000000000+000000000000000                                                                                                                                                                
6000700297000007850+000000000+000000000+000000000000000                                                                                                                                                                
6000700313000007850+000000000+000000000+000000000000000                                                                                                                                                                
6000700023000007850+000000000+000000000+000000000000000                                                                                                                                                                
6000700024000007850+000000000+000000000+000000000000000                                                                                                                                                                
6000700025000007850+000000000+000000000+000000000000000                                                                                                                                                                
6000700026000007850+000000000+000000000+000000000000000                                                                                                                                                                
6000700028000007850+000000000+000000000+000000000000000                                                                                                                                                                
6000700029000007850+000000000+000000000+000000000000000                                                                                                                                                                
6000700030000007850+000000000+000000000+000000000000000                                                                                                                                                                
6000700037000007850+000000000+000000000+000000000000000                                                                                                                                                                
6000700038000007850+000000000+000000000+000000000000000                                                                                                                                                                
6000700039000007850+000000000+000000000+000000000000000                                                                                                                                                                
6000700151000007850+000000000+000000000+000000000000000                                                                                                                                                                
6000700217000007850+000000000+000000000+000000000000000                                                                                                                                                                
6000700219000007850+000000000+000000000+000000000000000                                                                                                                                                                
6000700220000007850+000000000+000000000+000000000000000                                                                                                                                                                
6000700221000007850+000000000+000000000+000000000000000                                                                                                                                                                
6000700222000007850+000000000+000000000+000000000000000                                                                                                                                                                
6000700223000007850+000000000+000000000+000000000000000                                                                                                                                                                
6000700224000007850+000000000+000000000+000000000000000                                                                                                                                                                
6000700225000007850+000000000+000000000+000000000000000                                                                                                                                                                
6000700226000007850+000000000+000000000+000000000000000                                                                                                                                                                
6000700240000007850+000000000+000000000+000000000000000                                                                                                                                                                
6000700241000007850+000000000+000000000+000000000000000                                                                                                                                                                
6000700242000007850+000000000+000000000+000000000000000                                                                                                                                                                
6000700243000007850+000000000+000000000+000000000000000                                                                                                                                                                
6000700244000007850+000000000+000000000+000000000000000                                                                                                                                                                
6000700245000007850+000000000+000000000+000000000000000                                                                                                                                                                
6000700246000007850+000000000+000000000+000000000000000                                                                                                                                                                
6000700247000007850+000000000+000000000+000000000000000                                                                                                                                                                
6000700248000007850+000000000+000000000+000000000000000                                                                                                                                                                
6000700249000007850+000000000+000000000+000000000000000                                                                                                                                                                
6000700250000007850+000000000+000000000+000000000000000                                                                                                                                                                
6000700251000007850+000000000+000000000+000000000000000                                                                                                                                                                
6000700252000007850+000000000+000000000+000000000000000                                                                                                                                                                
6000700253000007850+000000000+000000000+000000000000000                                                                                                                                                                
6000700254000007850+000000000+000000000+000000000000000                                                                                                                                                                
6000700255000007850+000000000+000000000+000000000000000                                                                                                                                                                
6000700258000007850+000000000+000000000+000000000000000                                                                                                                                                                
6000700259000007850+000000000+000000000+000000000000000                                                                                                                                                                
6000700260000007850+000000000+000000000+000000000000000                                                                                                                                                                
6000700261000007850+000000000+000000000+000000000000000                                                                                                                                                                
6000700262000007850+000000000+000000000+000000000000000                                                                                                                                                                
6000700263000007850+000000000+000000000+000000000000000                                                                                                                                                                
6000700277000007850+000000000+000000000+000000000000000                                                                                                                                                                
6000700398000007850+000000000+000000000+000000000000000                                                                                                                                                                
6000700399000007850+000000000+000000000+000000000000000                                                                                                                                                                
6000700400000007850+000000000+000000000+000000000000000                                                                                                                                                                
6000700408000007850+000000000+000000000+000000000000000                                                                                                                                                                
6000700409000007850+000000000+000000000+000000000000000                                                                                                                                                                
6000700410000007850+000000000+000000000+000000000000000                                                                                                                                                                
6000700411000007850+000000000+000000000+000000000000000                                                                                                                                                                
6000700412000007850+000000000+000000000+000000000000000                                                                                                                                                                
6000700031000007850+000000000+000000000+000000000000000                                                                                                                                                                
6000700032000007850+000000000+000000000+000000000000000                                                                                                                                                                
6000700033000007850+000000000+000000000+000000000000000                                                                                                                                                                
6000700034000007850+000000000+000000000+000000000000000                                                                                                                                                                
6000700035000007850+000000000+000000000+000000000000000                                                                                                                                                                
6000700036000007850+000000000+000000000+000000000000000                                                                                                                                                                
6000700152000007850+000000000+000000000+000000000000000                                                                                                                                                                
6000700153000007850+000000000+000000000+000000000000000                                                                                                                                                                
6000700154000007850+000000000+000000000+000000000000000                                                                                                                                                                
6000700190000007850+000000000+000000000+000000000000000                                                                                                                                                                
6000700191000007850+000000000+000000000+000000000000000                                                                                                                                                                
6000700192000007850+000000000+000000000+000000000000000                                                                                                                                                                
6000700193000007850+000000000+000000000+000000000000000                                                                                                                                                                
6000700228000007850+000000000+000000000+000000000000000                                                                                                                                                                
6000700229000007850+000000000+000000000+000000000000000                                                                                                                                                                
6000700230000007850+000000000+000000000+000000000000000                                                                                                                                                                
6000700231000007850+000000000+000000000+000000000000000                                                                                                                                                                
6000700232000007850+000000000+000000000+000000000000000                                                                                                                                                                
6000700233000007850+000000000+000000000+000000000000000                                                                                                                                                                
6000700234000007850+000000000+000000000+000000000000000                                                                                                                                                                
6000700235000007850+000000000+000000000+000000000000000                                                                                                                                                                
6000700236000008864+000000000+000000000+000030000000000                                                                                                                                                                
6000700237000007850+000000000+000000000+000000000000000                                                                                                                                                                
6000700238000007850+000000000+000000000+000000000000000                                                                                                                                                                
6000700239000007850+000000000+000000000+000000000000000                                                                                                                                                                
6000700375000007850+000000000+000000000+000000000000000                                                                                                                                                                
6000700376000007850+000000000+000000000+000000000000000                                                                                                                                                                
6000700377000007850+000000000+000000000+000000000000000                                                                                                                                                                
6000700378000007850+000000000+000000000+000000000000000                                                                                                                                                                
6000700379000007850+000000000+000000000+000000000000000                                                                                                                                                                
6000700380000007850+000000000+000000000+000000000000000                                                                                                                                                                
6000700381000007850+000000000+000000000+000000000000000                                                                                                                                                                
6000700264000007850+000000000+000000000+000000000000000                                                                                                                                                                
6000700298000007850+000000000+000000000+000000000000000                                                                                                                                                                
6000700299000007850+000000000+000000000+000000000000000                                                                                                                                                                
6000700391000007850+000000000+000000000+000000000000000                                                                                                                                                                
6000700392000007850+000000000+000000000+000000000000000                                                                                                                                                                
6000700393000007850+000000000+000000000+000000000000000                                                                                                                                                                
6000700394000007850+000000000+000000000+000000000000000                                                                                                                                                                
6000700395000007850+000000000+000000000+000000000000000                                                                                                                                                                
6000700396000007850+000000000+000000000+000000000000000                                                                                                                                                                
6000700397000007850+000000000+000000000+000000000000000                                                                                                                                                                
6000700442000007850+000000000+000000000+000000000000000                                                                                                                                                                
6000700368000007850+000000000+000000000+000000000000000                                                                                                                                                                
6000700369000007850+000000000+000000000+000000000000000                                                                                                                                                                
6000700370000007850+000000000+000000000+000000000000000                                                                                                                                                                
6000700371000007850+000000000+000000000+000000000000000                                                                                                                                                                
6000700384000007850+000000000+000000000+000000000000000                                                                                                                                                                
6000700401000007850+000000000+000000000+000000000000000                                                                                                                                                                
6000700402000007850+000000000+000000000+000000000000000                                                                                                                                                                
6000700403000007850+000000000+000000000+000000000000000                                                                                                                                                                
6000700404000007850+000000000+000000000+000000000000000                                                                                                                                                                
6000700405000007850+000000000+000000000+000000000000000                                                                                                                                                                
6000700406000007850+000000000+000000000+000000000000000                                                                                                                                                                
6000700407000007850+000000000+000000000+000000000000000                                                                                                                                                                
6000700414000007850+000000000+000000000+000000000000000                                                                                                                                                                
6000700415000007850+000000000+000000000+000000000000000                                                                                                                                                                
6000700416000007850+000000000+000000000+000000000000000                                                                                                                                                                
6000700417000007850+000000000+000000000+000000000000000                                                                                                                                                                
6000700418000007850+000000000+000000000+000000000000000                                                                                                                                                                
6000700419000007850+000000000+000000000+000000000000000                                                                                                                                                                
6000700420000007850+000000000+000000000+000000000000000                                                                                                                                                                
6000700421000007850+000000000+000000000+000000000000000                                                                                                                                                                
6000700422000007850+000000000+000000000+000000000000000                                                                                                                                                                
6000700424000007850+000000000+000000000+000000000000000                                                                                                                                                                
6000700425000007850+000000000+000000000+000000000000000                                                                                                                                                                
6000700426000007850+000000000+000000000+000000000000000                                                                                                                                                                
6000700427000007850+000000000+000000000+000000000000000                                                                                                                                                                
6000700428000007850+000000000+000000000+000000000000000                                                                                                                                                                
6000700429000007850+000000000+000000000+000000000000000                                                                                                                                                                
6000700430000007850+000000000+000000000+000000000000000                                                                                                                                                                
6000700432000007850+000000000+000000000+000000000000000                                                                                                                                                                
6000700443000007850+000000000+000000000+000000000000000                                                                                                                                                                
6000700444000007850+000000000+000000000+000000000000000                                                                                                                                                                
6000700445000007850+000000000+000000000+000000000000000                                                                                                                                                                
6000700446000007850+000000000+000000000+000000000000000                                                                                                                                                                
6000700058000007850+000000000+000000000+000000000000000                                                                                                                                                                
6000700059000007850+000000000+000000000+000000000000000                                                                                                                                                                
6000700062000007850+000000000+000000000+000000000000000                                                                                                                                                                
6000700063000007850+000000000+000000000+000000000000000                                                                                                                                                                
6000700064000007850+000000000+000000000+000000000000000                                                                                                                                                                
6000700065000007850+000000000+000000000+000000000000000                                                                                                                                                                
6000700066000007850+000000000+000000000+000000000000000                                                                                                                                                                
6000700068000007850+000000000+000000000+000000000000000                                                                                                                                                                
6000700069000007850+000000000+000000000+000000000000000                                                                                                                                                                
6000700070000007850+000000000+000000000+000000000000000                                                                                                                                                                
6000700071000007850+000000000+000000000+000000000000000                                                                                                                                                                
6000700072000007850+000000000+000000000+000000000000000                                                                                                                                                                
6000700074000007850+000000000+000000000+000000000000000                                                                                                                                                                
6000700075000007850+000000000+000000000+000000000000000                                                                                                                                                                
6000700076000007850+000000000+000000000+000000000000000                                                                                                                                                                
6000700077000007850+000000000+000000000+000000000000000                                                                                                                                                                
6000700078000007850+000000000+000000000+000000000000000                                                                                                                                                                
6000700079000007850+000000000+000000000+000000000000000                                                                                                                                                                
6000700081000007850+000000000+000000000+000000000000000                                                                                                                                                                
6000700082000007850+000000000+000000000+000000000000000                                                                                                                                                                
6000700084000007850+000000000+000000000+000000000000000                                                                                                                                                                
6000700085000007850+000000000+000000000+000000000000000                                                                                                                                                                
6000700086000007850+000000000+000000000+000000000000000                                                                                                                                                                
6000700088000007850+000000000+000000000+000000000000000                                                                                                                                                                
6000700089000007850+000000000+000000000+000000000000000                                                                                                                                                                
6000700090000007850+000000000+000000000+000000000000000                                                                                                                                                                
6000700091000007850+000000000+000000000+000000000000000                                                                                                                                                                
6000700092000007850+000000000+000000000+000000000000000                                                                                                                                                                
6000700093000007850+000000000+000000000+000000000000000                                                                                                                                                                
6000700094000007850+000000000+000000000+000000000000000                                                                                                                                                                
6000700095000007850+000000000+000000000+000000000000000                                                                                                                                                                
6000700096000007850+000000000+000000000+000000000000000                                                                                                                                                                
6000700097000007850+000000000+000000000+000000000000000                                                                                                                                                                
6000700098000007850+000000000+000000000+000000000000000                                                                                                                                                                
6000700099000007850+000000000+000000000+000000000000000                                                                                                                                                                
6000700100000007850+000000000+000000000+000000000000000                                                                                                                                                                
6000700114000007850+000000000+000000000+000000000000000                                                                                                                                                                
6000700105000007850+000000000+000000000+000000000000000                                                                                                                                                                
6000700106000007850+000000000+000000000+000000000000000                                                                                                                                                                
6000700107000007850+000000000+000000000+000000000000000                                                                                                                                                                
6000700108000007850+000000000+000000000+000000000000000                                                                                                                                                                
6000700109000007850+000000000+000000000+000000000000000                                                                                                                                                                
6000700110000007850+000000000+000000000+000000000000000                                                                                                                                                                
6000700111000007850+000000000+000000000+000000000000000                                                                                                                                                                
6000700112000007850+000000000+000000000+000000000000000                                                                                                                                                                
6000700113000007850+000000000+000000000+000000000000000                                                                                                                                                                
6000700115000007850+000000000+000000000+000000000000000                                                                                                                                                                
6000700116000007850+000000000+000000000+000000000000000                                                                                                                                                                
6000700117000007850+000000000+000000000+000000000000000                                                                                                                                                                
6000700118000007850+000000000+000000000+000000000000000                                                                                                                                                                
6000700123000007850+000000000+000000000+000000000000000                                                                                                                                                                
6000700124000007850+000000000+000000000+000000000000000                                                                                                                                                                
6000700125000007850+000000000+000000000+000000000000000                                                                                                                                                                
6000700126000007850+000000000+000000000+000000000000000                                                                                                                                                                
6000700127000007850+000000000+000000000+000000000000000                                                                                                                                                                
6000700128000007850+000000000+000000000+000000000000000                                                                                                                                                                
6000700129000007850+000000000+000000000+000000000000000                                                                                                                                                                
6000700130000007850+000000000+000000000+000000000000000                                                                                                                                                                
6000700131000007850+000000000+000000000+000000000000000                                                                                                                                                                
6000700132000007850+000000000+000000000+000000000000000                                                                                                                                                                
6000700043000007850+000000000+000000000+000000000000000                                                                                                                                                                
6000700044000007850+000000000+000000000+000000000000000                                                                                                                                                                
6000700045000007850+000000000+000000000+000000000000000                                                                                                                                                                
6000700046000007850+000000000+000000000+000000000000000                                                                                                                                                                
6000700047000007850+000000000+000000000+000000000000000                                                                                                                                                                
6000700048000007850+000000000+000000000+000000000000000                                                                                                                                                                
6000700049000007850+000000000+000000000+000000000000000                                                                                                                                                                
6000700050000007850+000000000+000000000+000000000000000                                                                                                                                                                
6000700051000007850+000000000+000000000+000000000000000                                                                                                                                                                
6000700052000007850+000000000+000000000+000000000000000                                                                                                                                                                
6000700053000007850+000000000+000000000+000000000000000                                                                                                                                                                
6000700054000007850+000000000+000000000+000000000000000                                                                                                                                                                
6000700055000007850+000000000+000000000+000000000000000                                                                                                                                                                
6000700056000007850+000000000+000000000+000000000000000                                                                                                                                                                
6000700080000007850+000000000+000000000+000000000000000                                                                                                                                                                
6000700119000007850+000000000+000000000+000000000000000                                                                                                                                                                
6000700120000007850+000000000+000000000+000000000000000                                                                                                                                                                
6000700122000007850+000000000+000000000+000000000000000                                                                                                                                                                
6000700159000007850+000000000+000000000+000000000000000                                                                                                                                                                
6000700160000007850+000000000+000000000+000000000000000                                                                                                                                                                
6000700161000007850+000000000+000000000+000000000000000                                                                                                                                                                
6000700162000007850+000000000+000000000+000000000000000                                                                                                                                                                
6000700163000007850+000000000+000000000+000000000000000                                                                                                                                                                
6000700164000007850+000000000+000000000+000000000000000                                                                                                                                                                
6000700165000007850+000000000+000000000+000000000000000                                                                                                                                                                
6000700166000007850+000000000+000000000+000000000000000                                                                                                                                                                
6000700167000007850+000000000+000000000+000000000000000                                                                                                                                                                
6000700168000007850+000000000+000000000+000000000000000                                                                                                                                                                
6000700169000007850+000000000+000000000+000000000000000                                                                                                                                                                
6000700170000007850+000000000+000000000+000000000000000                                                                                                                                                                
6000700171000007850+000000000+000000000+000000000000000                                                                                                                                                                
6000700172000007850+000000000+000000000+000000000000000                                                                                                                                                                
6000700173000007850+000000000+000000000+000000000000000                                                                                                                                                                
6000700174000007850+000000000+000000000+000000000000000                                                                                                                                                                
6000700175000007850+000000000+000000000+000000000000000                                                                                                                                                                
6000700176000007850+000000000+000000000+000000000000000                                                                                                                                                                
6000700177000007850+000000000+000000000+000000000000000                                                                                                                                                                
6000700178000007850+000000000+000000000+000000000000000                                                                                                                                                                
6000700179000007850+000000000+000000000+000000000000000                                                                                                                                                                
6000700180000007850+000000000+000000000+000000000000000                                                                                                                                                                
6000700181000007850+000000000+000000000+000000000000000                                                                                                                                                                
6000700182000007850+000000000+000000000+000000000000000                                                                                                                                                                
6000700183000007850+000000000+000000000+000000000000000                                                                                                                                                                
6000700201000007850+000000000+000000000+000000000000000                                                                                                                                                                
6000700202000007850+000000000+000000000+000000000000000                                                                                                                                                                
6000700203000007850+000000000+000000000+000000000000000                                                                                                                                                                
6000700204000007850+000000000+000000000+000000000000000                                                                                                                                                                
6000700205000007850+000000000+000000000+000000000000000                                                                                                                                                                
6000700206000007850+000000000+000000000+000000000000000                                                                                                                                                                
6000700207000007850+000000000+000000000+000000000000000                                                                                                                                                                
6000700208000007850+000000000+000000000+000000000000000                                                                                                                                                                
6000700209000007850+000000000+000000000+000000000000000                                                                                                                                                                
6000700210000007850+000000000+000000000+000000000000000                                                                                                                                                                
6000700211000007850+000000000+000000000+000000000000000                                                                                                                                                                
6000700212000007850+000000000+000000000+000000000000000                                                                                                                                                                
6000700999000007850+000000000+000000000+000000000000000                                                                                                                                                                
6000700001000007850+000000000+000000000+000000000000000                                                                                                                                                                
6000700002000007850+000000000+000000000+000000000000000                                                                                                                                                                
6000700003000007850+000000000+000000000+000000000000000                                                                                                                                                                
6000700004000007850+000000000+000000000+000000000000000                                                                                                                                                                
6000700005000007850+000000000+000000000+000000000000000                                                                                                                                                                
6000700006000007850+000000000+000000000+000000000000000                                                                                                                                                                
6000700007000007850+000000000+000000000+000000000000000                                                                                                                                                                
6000700008000007850+000000000+000000000+000000000000000                                                                                                                                                                
6000700009000007850+000000000+000000000+000000000000000                                                                                                                                                                
6000700010000007850+000000000+000000000+000000000000000                                                                                                                                                                
6000700011000007850+000000000+000000000+000000000000000                                                                                                                                                                
6000700012000007850+000000000+000000000+000000000000000                                                                                                                                                                
6000700013000007850+000000000+000000000+000000000000000                                                                                                                                                                
6000700014000007850+000000000+000000000+000000000000000                                                                                                                                                                
6000700015000007850+000000000+000000000+000000000000000                                                                                                                                                                
6000700016000007850+000000000+000000000+000000000000000                                                                                                                                                                
6000700017000007850+000000000+000000000+000000000000000                                                                                                                                                                
6000700018000007850+000000000+000000000+000000000000000                                                                                                                                                                
6000700019000007850+000000000+000000000+000000000000000                                                                                                                                                                
6000700020000007850+000000000+000000000+000000000000000                                                                                                                                                                
6000700021000007850+000000000+000000000+000000000000000                                                                                                                                                                
6000700137000007850+000000000+000000000+000000000000000                                                                                                                                                                
6000700138000007850+000000000+000000000+000000000000000                                                                                                                                                                
6000700139000007850+000000000+000000000+000000000000000                                                                                                                                                                
6000700140000007850+000000000+000000000+000000000000000                                                                                                                                                                
6000700141000007850+000000000+000000000+000000000000000                                                                                                                                                                
6000700142000007850+000000000+000000000+000000000000000                                                                                                                                                                
6000700143000007850+000000000+000000000+000000000000000                                                                                                                                                                
6000700144000007850+000000000+000000000+000000000000000                                                                                                                                                                
6000700145000007850+000000000+000000000+000000000000000                                                                                                                                                                
6000700146000007850+000000000+000000000+000000000000000                                                                                                                                                                
6000700147000007850+000000000+000000000+000000000000000                                                                                                                                                                
6000700148000007850+000000000+000000000+000000000000000                                                                                                                                                                
6000700149000007850+000000000+000000000+000000000000000                                                                                                                                                                
6000700150000007850+000000000+000000000+000000000000000                                                                                                                                                                
6000700158000007850+000000000+000000000+000000000000000                                                                                                                                                                
6000700900000007850+000000000+000000000+000000000000000                                                                                                                                                                
6000700901000007850+000000000+000000000+000000000000000                                                                                                                                                                
6000700902000007850+000000000+000000000+000000000000000                                                                                                                                                                
6000700903000007850+000000000+000000000+000000000000000                                                                                                                                                                
6000700904000007850+000000000+000000000+000000000000000                                                                                                                                                                
6000700905000007850+000000000+000000000+000000000000000                                                                                                                                                                
6000700906000007850+000000000+000000000+000000000000000                                                                                                                                                                
6000700907000007850+000000000+000000000+000000000000000                                                                                                                                                                
6000700908000007850+000000000+000000000+000000000000000                                                                                                                                                                
6000700909000007850+000000000+000000000+000000000000000                                                                                                                                                                
6000700910000007850+000000000+000000000+000000000000000                                                                                                                                                                
6000700911000007850+000000000+000000000+000000000000000                                                                                                                                                                
6000700912000007850+000000000+000000000+000000000000000                                                                                                                                                                
6000700913000007850+000000000+000000000+000000000000000                                                                                                                                                                
6000700914000007850+000000000+000000000+000000000000000                                                                                                                                                                
6000700915000007850+000000000+000000000+000000000000000                                                                                                                                                                
6000700916000007850+000000000+000000000+000000000000000                                                                                                                                                                
6000700917000007850+000000000+000000000+000000000000000                                                                                                                                                                
6000700918000007850+000000000+000000000+000000000000000                                                                                                                                                                
6000700919000007850+000000000+000000000+000000000000000                                                                                                                                                                
6000700920000007850+000000000+000000000+000000000000000                                                                                                                                                                
6000700921000007850+000000000+000000000+000000000000000                                                                                                                                                                
6000700922000007850+000000000+000000000+000000000000000                                                                                                                                                                
6000700923000007850+000000000+000000000+000000000000000                                                                                                                                                                
6000700924000007850+000000000+000000000+000000000000000                                                                                                                                                                
6000703008000007850+000000000+000000000+000000000000000                                                                                                                                                                
6000703019000007850+000000000+000000000+000000000000000                                                                                                                                                                
6000703020000007850+000000000+000000000+000000000000000                                                                                                                                                                
6000703021000007850+000000000+000000000+000000000000000                                                                                                                                                                
6000703022000007850+000000000+000000000+000000000000000                                                                                                                                                                
6000703023000007850+000000000+000000000+000000000000000                                                                                                                                                                
6000703024000007850+000000000+000000000+000000000000000                                                                                                                                                                
6000703025000007850+000000000+000000000+000000000000000                                                                                                                                                                
6000703026000007850+000000000+000000000+000000000000000                                                                                                                                                                
6000703027000007850+000000000+000000000+000000000000000                                                                                                                                                                
6000703028000007850+000000000+000000000+000000000000000                                                                                                                                                                
6000703029000007850+000000000+000000000+000000000000000                                                                                                                                                                
6000703030000007850+000000000+000000000+000000000000000                                                                                                                                                                
6000703031000007850+000000000+000000000+000000000000000                                                                                                                                                                
6000703032000007850+000000000+000000000+000000000000000                                                                                                                                                                
6000703033000007850+000000000+000000000+000000000000000                                                                                                                                                                
6000703034000007850+000000000+000000000+000000000000000                                                                                                                                                                
6000703035000007850+000000000+000000000+000000000000000                                                                                                                                                                
6000703036000007850+000000000+000000000+000000000000000                                                                                                                                                                
6000703037000007850+000000000+000000000+000000000000000                                                                                                                                                                
6000703038000007850+000000000+000000000+000000000000000                                                                                                                                                                
6000703039000007850+000000000+000000000+000000000000000                                                                                                                                                                
6000703001000007850+000000000+000000000+000000000000000                                                                                                                                                                
6000703002000007850+000000000+000000000+000000000000000                                                                                                                                                                
