5000700000EXPLOTACION DE AGUA                     18/09/201718/09/2017
6000703000000000000+000000000+000000000+000000000000000                                                                                                                                                                
6000703072000000000+000000000+000000000+000000000000000                                                                                                                                                                
6000703085000000000+000000000+000000000+000000000000000                                                                                                                                                                
6000704001000000000+000000000+000000000+000000000000000                                                                                                                                                                
6000704002000000000+000000000+000000000+000000000000000                                                                                                                                                                
6000704003000000000+000000000+000000000+000000000000000                                                                                                                                                                
6000704004000000000+000000000+000000000+000000000000000                                                                                                                                                                
6000704005000000000+000000000+000000000+000000000000000                                                                                                                                                                
6000704006000000000+000000000+000000000+000000000000000                                                                                                                                                                
6000704007000000000+000000000+000000000+000000000000000                                                                                                                                                                
6000704008000000000+000000000+000000000+000000000000000                                                                                                                                                                
6000704009000000000+000000000+000000000+000000000000000                                                                                                                                                                
6000704010000000000+000000000+000000000+000000000000000                                                                                                                                                                
6000704011000000000+000000000+000000000+000000000000000                                                                                                                                                                
6000704012000000000+000000000+000000000+000000000000000                                                                                                                                                                
6000704013000000000+000000000+000000000+000000000000000                                                                                                                                                                
6000704014000000000+000000000+000000000+000000000000000                                                                                                                                                                
6000704015000000000+000000000+000000000+000000000000000                                                                                                                                                                
6000704016000000000+000000000+000000000+000000000000000                                                                                                                                                                
6000704017000000000+000000000+000000000+000000000000000                                                                                                                                                                
6000700213000000000+000000000+000000000+000000000000000                                                                                                                                                                
6000700214000000000+000000000+000000000+000000000000000                                                                                                                                                                
6000700215000000000+000000000+000000000+000000000000000                                                                                                                                                                
6000700216000000000+000000000+000000000+000000000000000                                                                                                                                                                
6000700281000000000+000000000+000000000+000000000000000                                                                                                                                                                
6000700282000000000+000000000+000000000+000000000000000                                                                                                                                                                
6000700283000000000+000000000+000000000+000000000000000                                                                                                                                                                
6000700300000000000+000000000+000000000+000000000000000                                                                                                                                                                
6000700301000000000+000000000+000000000+000000000000000                                                                                                                                                                
6000700302000000000+000000000+000000000+000000000000000                                                                                                                                                                
6000700303000000000+000000000+000000000+000000000000000                                                                                                                                                                
6000700304000000000+000000000+000000000+000000000000000                                                                                                                                                                
6000700305000000000+000000000+000000000+000000000000000                                                                                                                                                                
6000700306000000000+000000000+000000000+000000000000000                                                                                                                                                                
6000700307000000000+000000000+000000000+000000000000000                                                                                                                                                                
6000700308000000000+000000000+000000000+000000000000000                                                                                                                                                                
6000700309000000000+000000000+000000000+000000000000000                                                                                                                                                                
6000700310000000000+000000000+000000000+000000000000000                                                                                                                                                                
6000700311000000000+000000000+000000000+000000000000000                                                                                                                                                                
6000700312000000000+000000000+000000000+000000000000000                                                                                                                                                                
6000700314000000000+000000000+000000000+000000000000000                                                                                                                                                                
6000700315000000000+000000000+000000000+000000000000000                                                                                                                                                                
6000700316000000000+000000000+000000000+000000000000000                                                                                                                                                                
6000700317000000000+000000000+000000000+000000000000000                                                                                                                                                                
6000700318000000000+000000000+000000000+000000000000000                                                                                                                                                                
6000700319000000000+000000000+000000000+000000000000000                                                                                                                                                                
6000700320000000000+000000000+000000000+000000000000000                                                                                                                                                                
6000700321000000000+000000000+000000000+000000000000000                                                                                                                                                                
6000700322000000000+000000000+000000000+000000000000000                                                                                                                                                                
6000700323000000000+000000000+000000000+000000000000000                                                                                                                                                                
6000700324000000000+000000000+000000000+000000000000000                                                                                                                                                                
6000700325000000000+000000000+000000000+000000000000000                                                                                                                                                                
6000700326000000000+000000000+000000000+000000000000000                                                                                                                                                                
6000700327000000000+000000000+000000000+000000000000000                                                                                                                                                                
6000700328000000000+000000000+000000000+000000000000000                                                                                                                                                                
6000700329000000000+000000000+000000000+000000000000000                                                                                                                                                                
6000700330000000000+000000000+000000000+000000000000000                                                                                                                                                                
6000700331000000000+000000000+000000000+000000000000000                                                                                                                                                                
6000700332000000000+000000000+000000000+000000000000000                                                                                                                                                                
6000700333000000000+000000000+000000000+000000000000000                                                                                                                                                                
6000700334000000000+000000000+000000000+000000000000000                                                                                                                                                                
6000700335000000000+000000000+000000000+000000000000000                                                                                                                                                                
6000700336000000000+000000000+000000000+000000000000000                                                                                                                                                                
6000700337000000000+000000000+000000000+000000000000000                                                                                                                                                                
6000700338000000000+000000000+000000000+000000000000000                                                                                                                                                                
6000700339000000000+000000000+000000000+000000000000000                                                                                                                                                                
6000700341000000000+000000000+000000000+000000000000000                                                                                                                                                                
6000700342000000000+000000000+000000000+000000000000000                                                                                                                                                                
6000700343000000000+000000000+000000000+000000000000000                                                                                                                                                                
6000700344000000000+000000000+000000000+000000000000000                                                                                                                                                                
6000700345000000000+000000000+000000000+000000000000000                                                                                                                                                                
6000700346000000000+000000000+000000000+000000000000000                                                                                                                                                                
6000700347000000000+000000000+000000000+000000000000000                                                                                                                                                                
6000700348000000000+000000000+000000000+000000000000000                                                                                                                                                                
6000700349000000000+000000000+000000000+000000000000000                                                                                                                                                                
6000700350000000000+000000000+000000000+000000000000000                                                                                                                                                                
6000700351000000000+000000000+000000000+000000000000000                                                                                                                                                                
6000700352000000000+000000000+000000000+000000000000000                                                                                                                                                                
6000700353000000000+000000000+000000000+000000000000000                                                                                                                                                                
6000700354000000000+000000000+000000000+000000000000000                                                                                                                                                                
6000700355000000000+000000000+000000000+000000000000000                                                                                                                                                                
6000700356000000000+000000000+000000000+000000000000000                                                                                                                                                                
6000700357000000000+000000000+000000000+000000000000000                                                                                                                                                                
6000700358000000000+000000000+000000000+000000000000000                                                                                                                                                                
6000700359000000000+000000000+000000000+000000000000000                                                                                                                                                                
6000700363000000000+000000000+000000000+000000000000000                                                                                                                                                                
6000700364000000000+000000000+000000000+000000000000000                                                                                                                                                                
6000700365000000000+000000000+000000000+000000000000000                                                                                                                                                                
6000700366000000000+000000000+000000000+000000000000000                                                                                                                                                                
6000700367000000000+000000000+000000000+000000000000000                                                                                                                                                                
6000700374000000000+000000000+000000000+000000000000000                                                                                                                                                                
6000700382000000000+000000000+000000000+000000000000000                                                                                                                                                                
6000700383000000000+000000000+000000000+000000000000000                                                                                                                                                                
6000700385000000000+000000000+000000000+000000000000000                                                                                                                                                                
6000700386000000000+000000000+000000000+000000000000000                                                                                                                                                                
6000700387000000000+000000000+000000000+000000000000000                                                                                                                                                                
6000700388000000000+000000000+000000000+000000000000000                                                                                                                                                                
6000700389000000000+000000000+000000000+000000000000000                                                                                                                                                                
6000700390000000000+000000000+000000000+000000000000000                                                                                                                                                                
6000700433000000000+000000000+000000000+000000000000000                                                                                                                                                                
6000700434000000000+000000000+000000000+000000000000000                                                                                                                                                                
6000700435000000000+000000000+000000000+000000000000000                                                                                                                                                                
6000700436000000000+000000000+000000000+000000000000000                                                                                                                                                                
6000700437000000000+000000000+000000000+000000000000000                                                                                                                                                                
6000700439000000000+000000000+000000000+000000000000000                                                                                                                                                                
6000700440000000000+000000000+000000000+000000000000000                                                                                                                                                                
6000700441000000000+000000000+000000000+000000000000000                                                                                                                                                                
6000700266000000000+000000000+000000000+000000000000000                                                                                                                                                                
6000700267000000000+000000000+000000000+000000000000000                                                                                                                                                                
6000700268000000000+000000000+000000000+000000000000000                                                                                                                                                                
6000700269000000000+000000000+000000000+000000000000000                                                                                                                                                                
6000700270000000000+000000000+000000000+000000000000000                                                                                                                                                                
6000700273000000000+000000000+000000000+000000000000000                                                                                                                                                                
6000700274000000000+000000000+000000000+000000000000000                                                                                                                                                                
6000700275000000000+000000000+000000000+000000000000000                                                                                                                                                                
6000700276000000000+000000000+000000000+000000000000000                                                                                                                                                                
6000700278000000000+000000000+000000000+000000000000000                                                                                                                                                                
6000700279000000000+000000000+000000000+000000000000000                                                                                                                                                                
6000700280000000000+000000000+000000000+000000000000000                                                                                                                                                                
6000700284000000000+000000000+000000000+000000000000000                                                                                                                                                                
6000700285000000000+000000000+000000000+000000000000000                                                                                                                                                                
6000700286000000000+000000000+000000000+000000000000000                                                                                                                                                                
6000700287000000000+000000000+000000000+000000000000000                                                                                                                                                                
6000700288000000000+000000000+000000000+000000000000000                                                                                                                                                                
6000700289000000000+000000000+000000000+000000000000000                                                                                                                                                                
6000700290000000000+000000000+000000000+000000000000000                                                                                                                                                                
6000700291000000000+000000000+000000000+000000000000000                                                                                                                                                                
6000700292000000000+000000000+000000000+000000000000000                                                                                                                                                                
6000700293000000000+000000000+000000000+000000000000000                                                                                                                                                                
6000700294000000000+000000000+000000000+000000000000000                                                                                                                                                                
6000700295000000000+000000000+000000000+000000000000000                                                                                                                                                                
6000700296000000000+000000000+000000000+000000000000000                                                                                                                                                                
6000700297000000000+000000000+000000000+000000000000000                                                                                                                                                                
6000700313000000000+000000000+000000000+000000000000000                                                                                                                                                                
6000700023000000000+000000000+000000000+000000000000000                                                                                                                                                                
6000700024000000000+000000000+000000000+000000000000000                                                                                                                                                                
6000700025000000000+000000000+000000000+000000000000000                                                                                                                                                                
6000700026000000000+000000000+000000000+000000000000000                                                                                                                                                                
6000700028000000000+000000000+000000000+000000000000000                                                                                                                                                                
6000700029000000000+000000000+000000000+000000000000000                                                                                                                                                                
6000700030000000000+000000000+000000000+000000000000000                                                                                                                                                                
6000700037000000000+000000000+000000000+000000000000000                                                                                                                                                                
6000700038000000000+000000000+000000000+000000000000000                                                                                                                                                                
6000700039000000000+000000000+000000000+000000000000000                                                                                                                                                                
6000700151000000000+000000000+000000000+000000000000000                                                                                                                                                                
6000700217000000000+000000000+000000000+000000000000000                                                                                                                                                                
6000700219000000000+000000000+000000000+000000000000000                                                                                                                                                                
6000700220000000000+000000000+000000000+000000000000000                                                                                                                                                                
6000700221000000000+000000000+000000000+000000000000000                                                                                                                                                                
6000700222000000000+000000000+000000000+000000000000000                                                                                                                                                                
6000700223000000000+000000000+000000000+000000000000000                                                                                                                                                                
6000700224000000000+000000000+000000000+000000000000000                                                                                                                                                                
6000700225000000000+000000000+000000000+000000000000000                                                                                                                                                                
6000700226000000000+000000000+000000000+000000000000000                                                                                                                                                                
6000700240000000000+000000000+000000000+000000000000000                                                                                                                                                                
6000700241000000000+000000000+000000000+000000000000000                                                                                                                                                                
6000700242000000000+000000000+000000000+000000000000000                                                                                                                                                                
6000700243000000000+000000000+000000000+000000000000000                                                                                                                                                                
6000700244000000000+000000000+000000000+000000000000000                                                                                                                                                                
6000700245000000000+000000000+000000000+000000000000000                                                                                                                                                                
6000700246000000000+000000000+000000000+000000000000000                                                                                                                                                                
6000700247000000000+000000000+000000000+000000000000000                                                                                                                                                                
6000700248000000000+000000000+000000000+000000000000000                                                                                                                                                                
6000700249000000000+000000000+000000000+000000000000000                                                                                                                                                                
6000700250000000000+000000000+000000000+000000000000000                                                                                                                                                                
6000700251000000000+000000000+000000000+000000000000000                                                                                                                                                                
6000700252000000000+000000000+000000000+000000000000000                                                                                                                                                                
6000700253000000000+000000000+000000000+000000000000000                                                                                                                                                                
6000700254000000000+000000000+000000000+000000000000000                                                                                                                                                                
6000700255000000000+000000000+000000000+000000000000000                                                                                                                                                                
6000700258000000000+000000000+000000000+000000000000000                                                                                                                                                                
6000700259000000000+000000000+000000000+000000000000000                                                                                                                                                                
6000700260000000000+000000000+000000000+000000000000000                                                                                                                                                                
6000700261000000000+000000000+000000000+000000000000000                                                                                                                                                                
6000700262000000000+000000000+000000000+000000000000000                                                                                                                                                                
6000700263000000000+000000000+000000000+000000000000000                                                                                                                                                                
6000700277000000000+000000000+000000000+000000000000000                                                                                                                                                                
6000700398000000000+000000000+000000000+000000000000000                                                                                                                                                                
6000700399000000000+000000000+000000000+000000000000000                                                                                                                                                                
6000700400000000000+000000000+000000000+000000000000000                                                                                                                                                                
6000700408000000000+000000000+000000000+000000000000000                                                                                                                                                                
6000700409000000000+000000000+000000000+000000000000000                                                                                                                                                                
6000700410000000000+000000000+000000000+000000000000000                                                                                                                                                                
6000700411000000000+000000000+000000000+000000000000000                                                                                                                                                                
6000700412000000000+000000000+000000000+000000000000000                                                                                                                                                                
6000700031000000000+000000000+000000000+000000000000000                                                                                                                                                                
6000700032000000000+000000000+000000000+000000000000000                                                                                                                                                                
6000700033000000000+000000000+000000000+000000000000000                                                                                                                                                                
6000700034000000000+000000000+000000000+000000000000000                                                                                                                                                                
6000700035000000000+000000000+000000000+000000000000000                                                                                                                                                                
6000700036000000000+000000000+000000000+000000000000000                                                                                                                                                                
6000700152000000000+000000000+000000000+000000000000000                                                                                                                                                                
6000700153000000000+000000000+000000000+000000000000000                                                                                                                                                                
6000700154000000000+000000000+000000000+000000000000000                                                                                                                                                                
6000700190000000000+000000000+000000000+000000000000000                                                                                                                                                                
6000700191000000000+000000000+000000000+000000000000000                                                                                                                                                                
6000700192000000000+000000000+000000000+000000000000000                                                                                                                                                                
6000700193000000000+000000000+000000000+020040000000000                                                                                                                                                                
6000700228000000000+000000000+000000000+000000000000000                                                                                                                                                                
6000700229000000000+000000000+000000000+000000000000000                                                                                                                                                                
6000700230000000000+000000000+000000000+000000000000000                                                                                                                                                                
6000700231000000000+000000000+000000000+000000000000000                                                                                                                                                                
6000700232000000000+000000000+000000000+108140000000000                                                                                                                                                                
6000700233000000000+000000000+000000000+000000000000000                                                                                                                                                                
6000700234000000000+000000000+000000000+000000000000000                                                                                                                                                                
6000700235000000000+000000000+000000000+000000000000000                                                                                                                                                                
6000700236000000000+000000000+000000000+002510000000000                                                                                                                                                                
6000700237000000000+000000000+000000000+000000000000000                                                                                                                                                                
6000700238000000000+000000000+000000000+000000000000000                                                                                                                                                                
6000700239000000000+000000000+000000000+000000000000000                                                                                                                                                                
6000700375000000000+000000000+000000000+000000000000000                                                                                                                                                                
6000700376000000000+000000000+000000000+000000000000000                                                                                                                                                                
6000700377000000000+000000000+000000000+000000000000000                                                                                                                                                                
6000700378000000000+000000000+000000000+000000000000000                                                                                                                                                                
6000700379000000000+000000000+000000000+000000000000000                                                                                                                                                                
6000700380000000000+000000000+000000000+000000000000000                                                                                                                                                                
6000700381000000000+000000000+000000000+000000000000000                                                                                                                                                                
6000700264000000000+000000000+000000000+000000000000000                                                                                                                                                                
6000700298000000000+000000000+000000000+000000000000000                                                                                                                                                                
6000700299000000000+000000000+000000000+000000000000000                                                                                                                                                                
6000700391000000000+000000000+000000000+000000000000000                                                                                                                                                                
6000700392000000000+000000000+000000000+000000000000000                                                                                                                                                                
6000700393000000000+000000000+000000000+000000000000000                                                                                                                                                                
6000700394000000000+000000000+000000000+000000000000000                                                                                                                                                                
6000700395000000000+000000000+000000000+000000000000000                                                                                                                                                                
6000700396000000000+000000000+000000000+000000000000000                                                                                                                                                                
6000700397000000000+000000000+000000000+000000000000000                                                                                                                                                                
6000700442000000000+000000000+000000000+000000000000000                                                                                                                                                                
6000700368000000000+000000000+000000000+000000000000000                                                                                                                                                                
6000700369000000000+000000000+000000000+000000000000000                                                                                                                                                                
6000700370000000000+000000000+000000000+000000000000000                                                                                                                                                                
6000700371000000000+000000000+000000000+000000000000000                                                                                                                                                                
6000700384000000000+000000000+000000000+000000000000000                                                                                                                                                                
6000700401000000000+000000000+000000000+000000000000000                                                                                                                                                                
6000700402000000000+000000000+000000000+000000000000000                                                                                                                                                                
6000700403000000000+000000000+000000000+000000000000000                                                                                                                                                                
6000700404000000000+000000000+000000000+000000000000000                                                                                                                                                                
6000700405000000000+000000000+000000000+000000000000000                                                                                                                                                                
6000700406000000000+000000000+000000000+000000000000000                                                                                                                                                                
6000700407000000000+000000000+000000000+000000000000000                                                                                                                                                                
6000700414000000000+000000000+000000000+000000000000000                                                                                                                                                                
6000700415000000000+000000000+000000000+000000000000000                                                                                                                                                                
6000700416000000000+000000000+000000000+000000000000000                                                                                                                                                                
6000700417000000000+000000000+000000000+000000000000000                                                                                                                                                                
6000700418000000000+000000000+000000000+000000000000000                                                                                                                                                                
6000700419000000000+000000000+000000000+000000000000000                                                                                                                                                                
6000700420000000000+000000000+000000000+000000000000000                                                                                                                                                                
6000700421000000000+000000000+000000000+000000000000000                                                                                                                                                                
6000700422000000000+000000000+000000000+000000000000000                                                                                                                                                                
6000700424000000000+000000000+000000000+000000000000000                                                                                                                                                                
6000700425000000000+000000000+000000000+000000000000000                                                                                                                                                                
6000700426000000000+000000000+000000000+000000000000000                                                                                                                                                                
6000700427000000000+000000000+000000000+000000000000000                                                                                                                                                                
6000700428000000000+000000000+000000000+000000000000000                                                                                                                                                                
6000700429000000000+000000000+000000000+000000000000000                                                                                                                                                                
6000700430000000000+000000000+000000000+000000000000000                                                                                                                                                                
6000700432000000000+000000000+000000000+000000000000000                                                                                                                                                                
6000700443000000000+000000000+000000000+000000000000000                                                                                                                                                                
6000700444000000000+000000000+000000000+000000000000000                                                                                                                                                                
6000700445000000000+000000000+000000000+000000000000000                                                                                                                                                                
6000700446000000000+000000000+000000000+000000000000000                                                                                                                                                                
6000700058000000000+000000000+000000000+000000000000000                                                                                                                                                                
6000700059000000000+000000000+000000000+000000000000000                                                                                                                                                                
6000700062000000000+000000000+000000000+000000000000000                                                                                                                                                                
6000700063000000000+000000000+000000000+000000000000000                                                                                                                                                                
6000700064000000000+000000000+000000000+000000000000000                                                                                                                                                                
6000700065000000000+000000000+000000000+000000000000000                                                                                                                                                                
6000700066000000000+000000000+000000000+000000000000000                                                                                                                                                                
6000700068000000000+000000000+000000000+000000000000000                                                                                                                                                                
6000700069000000000+000000000+000000000+000000000000000                                                                                                                                                                
6000700070000000000+000000000+000000000+000000000000000                                                                                                                                                                
6000700071000000000+000000000+000000000+000000000000000                                                                                                                                                                
6000700072000000000+000000000+000000000+000000000000000                                                                                                                                                                
6000700074000000000+000000000+000000000+000000000000000                                                                                                                                                                
6000700075000000000+000000000+000000000+000000000000000                                                                                                                                                                
6000700076000000000+000000000+000000000+000000000000000                                                                                                                                                                
6000700077000000000+000000000+000000000+000000000000000                                                                                                                                                                
6000700078000000000+000000000+000000000+000000000000000                                                                                                                                                                
6000700079000000000+000000000+000000000+000000000000000                                                                                                                                                                
6000700081000000000+000000000+000000000+000000000000000                                                                                                                                                                
6000700082000000000+000000000+000000000+000000000000000                                                                                                                                                                
6000700084000000000+000000000+000000000+000000000000000                                                                                                                                                                
6000700085000000000+000000000+000000000+000000000000000                                                                                                                                                                
6000700086000000000+000000000+000000000+000000000000000                                                                                                                                                                
6000700088000000000+000000000+000000000+000000000000000                                                                                                                                                                
6000700089000000000+000000000+000000000+000000000000000                                                                                                                                                                
6000700090000000000+000000000+000000000+000000000000000                                                                                                                                                                
6000700091000000000+000000000+000000000+000000000000000                                                                                                                                                                
6000700092000000000+000000000+000000000+000000000000000                                                                                                                                                                
6000700093000000000+000000000+000000000+000000000000000                                                                                                                                                                
6000700094000000000+000000000+000000000+000000000000000                                                                                                                                                                
6000700095000000000+000000000+000000000+000000000000000                                                                                                                                                                
6000700096000000000+000000000+000000000+000000000000000                                                                                                                                                                
6000700097000000000+000000000+000000000+000000000000000                                                                                                                                                                
6000700098000000000+000000000+000000000+000000000000000                                                                                                                                                                
6000700099000000000+000000000+000000000+000000000000000                                                                                                                                                                
6000700100000000000+000000000+000000000+000000000000000                                                                                                                                                                
6000700114000000000+000000000+000000000+000000000000000                                                                                                                                                                
6000700105000000000+000000000+000000000+000000000000000                                                                                                                                                                
6000700106000000000+000000000+000000000+000000000000000                                                                                                                                                                
6000700107000000000+000000000+000000000+000000000000000                                                                                                                                                                
6000700108000000000+000000000+000000000+000000000000000                                                                                                                                                                
6000700109000000000+000000000+000000000+000000000000000                                                                                                                                                                
6000700110000000000+000000000+000000000+000000000000000                                                                                                                                                                
6000700111000000000+000000000+000000000+000000000000000                                                                                                                                                                
6000700112000000000+000000000+000000000+000000000000000                                                                                                                                                                
6000700113000000000+000000000+000000000+000000000000000                                                                                                                                                                
6000700115000000000+000000000+000000000+000000000000000                                                                                                                                                                
6000700116000000000+000000000+000000000+000000000000000                                                                                                                                                                
6000700117000000000+000000000+000000000+000000000000000                                                                                                                                                                
6000700118000000000+000000000+000000000+000000000000000                                                                                                                                                                
6000700123000000000+000000000+000000000+000000000000000                                                                                                                                                                
6000700124000000000+000000000+000000000+000000000000000                                                                                                                                                                
6000700125000000000+000000000+000000000+000000000000000                                                                                                                                                                
6000700126000000000+000000000+000000000+000000000000000                                                                                                                                                                
6000700127000000000+000000000+000000000+000000000000000                                                                                                                                                                
6000700128000000000+000000000+000000000+000000000000000                                                                                                                                                                
6000700129000000000+000000000+000000000+000000000000000                                                                                                                                                                
6000700130000000000+000000000+000000000+000000000000000                                                                                                                                                                
6000700131000000000+000000000+000000000+000000000000000                                                                                                                                                                
6000700132000000000+000000000+000000000+000000000000000                                                                                                                                                                
6000700043000000000+000000000+000000000+000000000000000                                                                                                                                                                
6000700044000000000+000000000+000000000+000000000000000                                                                                                                                                                
6000700045000000000+000000000+000000000+000000000000000                                                                                                                                                                
6000700046000000000+000000000+000000000+000000000000000                                                                                                                                                                
6000700047000000000+000000000+000000000+000000000000000                                                                                                                                                                
6000700048000000000+000000000+000000000+000000000000000                                                                                                                                                                
6000700049000000000+000000000+000000000+000000000000000                                                                                                                                                                
6000700050000000000+000000000+000000000+000000000000000                                                                                                                                                                
6000700051000000000+000000000+000000000+000000000000000                                                                                                                                                                
6000700052000000000+000000000+000000000+000000000000000                                                                                                                                                                
6000700053000000000+000000000+000000000+000000000000000                                                                                                                                                                
6000700054000000000+000000000+000000000+000000000000000                                                                                                                                                                
6000700055000000000+000000000+000000000+000000000000000                                                                                                                                                                
6000700056000000000+000000000+000000000+000000000000000                                                                                                                                                                
6000700080000000000+000000000+000000000+000000000000000                                                                                                                                                                
6000700119000000000+000000000+000000000+000000000000000                                                                                                                                                                
6000700120000000000+000000000+000000000+000000000000000                                                                                                                                                                
6000700122000000000+000000000+000000000+000000000000000                                                                                                                                                                
6000700159000000000+000000000+000000000+000000000000000                                                                                                                                                                
6000700160000000000+000000000+000000000+000000000000000                                                                                                                                                                
6000700161000000000+000000000+000000000+000000000000000                                                                                                                                                                
6000700162000000000+000000000+000000000+000000000000000                                                                                                                                                                
6000700163000000000+000000000+000000000+000000000000000                                                                                                                                                                
6000700164000000000+000000000+000000000+000000000000000                                                                                                                                                                
6000700165000000000+000000000+000000000+000000000000000                                                                                                                                                                
6000700166000000000+000000000+000000000+000000000000000                                                                                                                                                                
6000700167000000000+000000000+000000000+000000000000000                                                                                                                                                                
6000700168000000000+000000000+000000000+000000000000000                                                                                                                                                                
6000700169000000000+000000000+000000000+000000000000000                                                                                                                                                                
6000700170000000000+000000000+000000000+000000000000000                                                                                                                                                                
6000700171000000000+000000000+000000000+000000000000000                                                                                                                                                                
6000700172000000000+000000000+000000000+000000000000000                                                                                                                                                                
6000700173000000000+000000000+000000000+000000000000000                                                                                                                                                                
6000700174000000000+000000000+000000000+000000000000000                                                                                                                                                                
6000700175000000000+000000000+000000000+000000000000000                                                                                                                                                                
6000700176000000000+000000000+000000000+000000000000000                                                                                                                                                                
6000700177000000000+000000000+000000000+000000000000000                                                                                                                                                                
6000700178000000000+000000000+000000000+000000000000000                                                                                                                                                                
6000700179000000000+000000000+000000000+000000000000000                                                                                                                                                                
6000700180000000000+000000000+000000000+000000000000000                                                                                                                                                                
6000700181000000000+000000000+000000000+000000000000000                                                                                                                                                                
6000700182000000000+000000000+000000000+000000000000000                                                                                                                                                                
6000700183000000000+000000000+000000000+000000000000000                                                                                                                                                                
6000700201000000000+000000000+000000000+000000000000000                                                                                                                                                                
6000700202000000000+000000000+000000000+000000000000000                                                                                                                                                                
6000700203000000000+000000000+000000000+000000000000000                                                                                                                                                                
6000700204000000000+000000000+000000000+000000000000000                                                                                                                                                                
6000700205000000000+000000000+000000000+000000000000000                                                                                                                                                                
6000700206000000000+000000000+000000000+000000000000000                                                                                                                                                                
6000700207000000000+000000000+000000000+000000000000000                                                                                                                                                                
6000700208000000000+000000000+000000000+000000000000000                                                                                                                                                                
6000700209000000000+000000000+000000000+000000000000000                                                                                                                                                                
6000700210000000000+000000000+000000000+000000000000000                                                                                                                                                                
6000700211000000000+000000000+000000000+000000000000000                                                                                                                                                                
6000700212000000000+000000000+000000000+000000000000000                                                                                                                                                                
6000700999000000000+000000000+000000000+000000000000000                                                                                                                                                                
6000700001000000000+000000000+000000000+000000000000000                                                                                                                                                                
6000700002000000000+000000000+000000000+000000000000000                                                                                                                                                                
6000700003000000000+000000000+000000000+000000000000000                                                                                                                                                                
6000700004000000000+000000000+000000000+000000000000000                                                                                                                                                                
6000700005000000000+000000000+000000000+000000000000000                                                                                                                                                                
6000700006000000000+000000000+000000000+000000000000000                                                                                                                                                                
6000700007000000000+000000000+000000000+000000000000000                                                                                                                                                                
6000700008000000000+000000000+000000000+000000000000000                                                                                                                                                                
6000700009000000000+000000000+000000000+000000000000000                                                                                                                                                                
6000700010000000000+000000000+000000000+000000000000000                                                                                                                                                                
6000700011000000000+000000000+000000000+000000000000000                                                                                                                                                                
6000700012000000000+000000000+000000000+000000000000000                                                                                                                                                                
6000700013000000000+000000000+000000000+000000000000000                                                                                                                                                                
6000700014000000000+000000000+000000000+000000000000000                                                                                                                                                                
6000700015000000000+000000000+000000000+000000000000000                                                                                                                                                                
6000700016000000000+000000000+000000000+000000000000000                                                                                                                                                                
6000700017000000000+000000000+000000000+000000000000000                                                                                                                                                                
6000700018000000000+000000000+000000000+000000000000000                                                                                                                                                                
6000700019000000000+000000000+000000000+000000000000000                                                                                                                                                                
6000700020000000000+000000000+000000000+000000000000000                                                                                                                                                                
6000700021000000000+000000000+000000000+000000000000000                                                                                                                                                                
6000700137000000000+000000000+000000000+000000000000000                                                                                                                                                                
6000700138000000000+000000000+000000000+000000000000000                                                                                                                                                                
6000700139000000000+000000000+000000000+000000000000000                                                                                                                                                                
6000700140000000000+000000000+000000000+000000000000000                                                                                                                                                                
6000700141000000000+000000000+000000000+000000000000000                                                                                                                                                                
6000700142000000000+000000000+000000000+000000000000000                                                                                                                                                                
6000700143000000000+000000000+000000000+000000000000000                                                                                                                                                                
6000700144000000000+000000000+000000000+000000000000000                                                                                                                                                                
6000700145000000000+000000000+000000000+000000000000000                                                                                                                                                                
6000700146000000000+000000000+000000000+000000000000000                                                                                                                                                                
6000700147000000000+000000000+000000000+000000000000000                                                                                                                                                                
6000700148000000000+000000000+000000000+000000000000000                                                                                                                                                                
6000700149000000000+000000000+000000000+000000000000000                                                                                                                                                                
6000700150000000000+000000000+000000000+000000000000000                                                                                                                                                                
6000700158000000000+000000000+000000000+000000000000000                                                                                                                                                                
6000700900000000000+000000000+000000000+000000000000000                                                                                                                                                                
6000700901000000000+000000000+000000000+000000000000000                                                                                                                                                                
6000700902000000000+000000000+000000000+000000000000000                                                                                                                                                                
6000700903000000000+000000000+000000000+000000000000000                                                                                                                                                                
6000700904000000000+000000000+000000000+000000000000000                                                                                                                                                                
6000700905000000000+000000000+000000000+000000000000000                                                                                                                                                                
6000700906000000000+000000000+000000000+000000000000000                                                                                                                                                                
6000700907000000000+000000000+000000000+000000000000000                                                                                                                                                                
6000700908000000000+000000000+000000000+000000000000000                                                                                                                                                                
6000700909000000000+000000000+000000000+000000000000000                                                                                                                                                                
6000700910000000000+000000000+000000000+000000000000000                                                                                                                                                                
6000700911000000000+000000000+000000000+000000000000000                                                                                                                                                                
6000700912000000000+000000000+000000000+000000000000000                                                                                                                                                                
6000700913000000000+000000000+000000000+000000000000000                                                                                                                                                                
6000700914000000000+000000000+000000000+000000000000000                                                                                                                                                                
6000700915000000000+000000000+000000000+000000000000000                                                                                                                                                                
6000700916000000000+000000000+000000000+000000000000000                                                                                                                                                                
6000700917000000000+000000000+000000000+000000000000000                                                                                                                                                                
6000700918000000000+000000000+000000000+000000000000000                                                                                                                                                                
6000700919000000000+000000000+000000000+000000000000000                                                                                                                                                                
6000700920000000000+000000000+000000000+000000000000000                                                                                                                                                                
6000700921000000000+000000000+000000000+000000000000000                                                                                                                                                                
6000700922000000000+000000000+000000000+000000000000000                                                                                                                                                                
6000700923000000000+000000000+000000000+000000000000000                                                                                                                                                                
6000700924000000000+000000000+000000000+000000000000000                                                                                                                                                                
6000703008000000000+000000000+000000000+000000000000000                                                                                                                                                                
6000703019000000000+000000000+000000000+000000000000000                                                                                                                                                                
6000703020000000000+000000000+000000000+000000000000000                                                                                                                                                                
6000703021000000000+000000000+000000000+000000000000000                                                                                                                                                                
6000703022000000000+000000000+000000000+000000000000000                                                                                                                                                                
6000703023000000000+000000000+000000000+000000000000000                                                                                                                                                                
6000703024000000000+000000000+000000000+000000000000000                                                                                                                                                                
6000703025000000000+000000000+000000000+000000000000000                                                                                                                                                                
6000703026000000000+000000000+000000000+000000000000000                                                                                                                                                                
6000703027000000000+000000000+000000000+000000000000000                                                                                                                                                                
6000703028000000000+000000000+000000000+000000000000000                                                                                                                                                                
6000703029000000000+000000000+000000000+000000000000000                                                                                                                                                                
6000703030000000000+000000000+000000000+000000000000000                                                                                                                                                                
6000703031000000000+000000000+000000000+000000000000000                                                                                                                                                                
6000703032000000000+000000000+000000000+000000000000000                                                                                                                                                                
6000703033000000000+000000000+000000000+000000000000000                                                                                                                                                                
6000703034000000000+000000000+000000000+000000000000000                                                                                                                                                                
6000703035000000000+000000000+000000000+000000000000000                                                                                                                                                                
6000703036000000000+000000000+000000000+000000000000000                                                                                                                                                                
6000703037000000000+000000000+000000000+000000000000000                                                                                                                                                                
6000703038000000000+000000000+000000000+000000000000000                                                                                                                                                                
6000703039000000000+000000000+000000000+000000000000000                                                                                                                                                                
6000703001000000000+000000000+000000000+000000000000000                                                                                                                                                                
6000703002000000000+000000000+000000000+000000000000000                                                                                                                                                                
