C20091722222222 OP22562196 NZ15000000002309200915263523,33
P20091722222222 OP22562196 NZREIG BACETE, ANTONIO                    20411447MPA005833
P20091722222222 OP22562196 NZVALLS CAPILLA, AMPARO                   19503274XPA000100
P20091722222222 OP22562196 NZFRIGORIFICO FALCON S.A.                 A31175581PA012550
