11902015F46038881AGRICOLA DE CATADAU S.COOP.V.           T962550503                                        0000000000000  0000000000000000000149 000000010259116000000000205180                                                                                                                                                                                                                                                                                                                                     
21902015F4603888119270950D         LUZ ESCORIHUELA, LEONOR                 46H01 00000000228080000000000456 0000000000000000000000000000000000000000000000000         00 0000000000000000000000000000000000000000000000000000000000000000000000000000000000000                                                                                                                                                                                                                                                      
21902015F4603888119399848S         CLIMENT LACASA, JOSE OCTAVIO            46H01 00000000008040000000000016 0000000000000000000000000000000000000000000000000         00 0000000000000000000000000000000000000000000000000000000000000000000000000000000000000                                                                                                                                                                                                                                                      
21902015F4603888119456860X         GARCIA TORTOSA, ROBERTO                 46H01 00000002988950000000005978 0000000000000000000000000000000000000000000000000         00 0000000000000000000000000000000000000000000000000000000000000000000000000000000000000                                                                                                                                                                                                                                                      
21902015F4603888119484114D         SABATER GIL, ASUNCION                   46H01 00000000590540000000001181 0000000000000000000000000000000000000000000000000         00 0000000000000000000000000000000000000000000000000000000000000000000000000000000000000                                                                                                                                                                                                                                                      
21902015F4603888119484666D         ALVAREZ PERPIÑA, AMPARO                 46H01 00000000441810000000000884 0000000000000000000000000000000000000000000000000         00 0000000000000000000000000000000000000000000000000000000000000000000000000000000000000                                                                                                                                                                                                                                                      
21902015F4603888119484667X         GIL ESTARLICH, CARMEN                   46H01 00000001296590000000002593 0000000000000000000000000000000000000000000000000         00 0000000000000000000000000000000000000000000000000000000000000000000000000000000000000                                                                                                                                                                                                                                                      
21902015F4603888119816009Z         MARTINEZ BISBAL, JOAQUIN                46H01 00000000224180000000000448 0000000000000000000000000000000000000000000000000         00 0000000000000000000000000000000000000000000000000000000000000000000000000000000000000                                                                                                                                                                                                                                                      
21902015F4603888119821672L         MARTINEZ BISBAL, JUAN                   46H01 00000000276490000000000553 0000000000000000000000000000000000000000000000000         00 0000000000000000000000000000000000000000000000000000000000000000000000000000000000000                                                                                                                                                                                                                                                      
21902015F4603888119850562K         SANCHO SANCHEZ, LEONOR                  46H01 00000000588590000000001177 0000000000000000000000000000000000000000000000000         00 0000000000000000000000000000000000000000000000000000000000000000000000000000000000000                                                                                                                                                                                                                                                      
21902015F4603888120698037S         ROSELL PUIG, CONSUELO                   46H01 00000000022790000000000046 0000000000000000000000000000000000000000000000000         00 0000000000000000000000000000000000000000000000000000000000000000000000000000000000000                                                                                                                                                                                                                                                      
21902015F4603888120698287N         LLORENS SANZ, CELESTINO                 46H01 00000000231100000000000462 0000000000000000000000000000000000000000000000000         00 0000000000000000000000000000000000000000000000000000000000000000000000000000000000000                                                                                                                                                                                                                                                      
21902015F4603888120698385H         AÑO CARDETE, JOSE                       46H01 00000000234990000000000470 0000000000000000000000000000000000000000000000000         00 0000000000000000000000000000000000000000000000000000000000000000000000000000000000000                                                                                                                                                                                                                                                      
21902015F4603888120698542Z         LLISO BISBAL, ROSAURA                   46H01 00000000014120000000000028 0000000000000000000000000000000000000000000000000         00 0000000000000000000000000000000000000000000000000000000000000000000000000000000000000                                                                                                                                                                                                                                                      
21902015F4603888120699714J         GIL BARBERA, VICENTE                    46H01 00000000244850000000000490 0000000000000000000000000000000000000000000000000         00 0000000000000000000000000000000000000000000000000000000000000000000000000000000000000                                                                                                                                                                                                                                                      
21902015F4603888120699923S         PERIS MARTINEZ,PILAR                    46H01 00000000174040000000000348 0000000000000000000000000000000000000000000000000         00 0000000000000000000000000000000000000000000000000000000000000000000000000000000000000                                                                                                                                                                                                                                                      
21902015F4603888120726929L         SANZ AÑO, JOSEFA                        46H01 00000001576270000000003153 0000000000000000000000000000000000000000000000000         00 0000000000000000000000000000000000000000000000000000000000000000000000000000000000000                                                                                                                                                                                                                                                      
21902015F4603888120727444M         FERRER AÑO, VICENTE                     46H01 00000000331960000000000663 0000000000000000000000000000000000000000000000000         00 0000000000000000000000000000000000000000000000000000000000000000000000000000000000000                                                                                                                                                                                                                                                      
21902015F4603888120737534K         CLARIANA TAPIA, JOAQUIN                 46H01 00000000629260000000001259 0000000000000000000000000000000000000000000000000         00 0000000000000000000000000000000000000000000000000000000000000000000000000000000000000                                                                                                                                                                                                                                                      
21902015F4603888120745711X         LLORENS SANZ, JOSE LUIS                 46H01 00000002554530000000005109 0000000000000000000000000000000000000000000000000         00 0000000000000000000000000000000000000000000000000000000000000000000000000000000000000                                                                                                                                                                                                                                                      
21902015F4603888120745970Q         CLIMENT APARISI ,MARIA REMEDIOS         46H01 00000000376880000000000754 0000000000000000000000000000000000000000000000000         00 0000000000000000000000000000000000000000000000000000000000000000000000000000000000000                                                                                                                                                                                                                                                      
21902015F4603888120745991Z         LLORENS MIQUEL, JUANA                   46H01 00000000062740000000000125 0000000000000000000000000000000000000000000000000         00 0000000000000000000000000000000000000000000000000000000000000000000000000000000000000                                                                                                                                                                                                                                                      
21902015F4603888120746027G         SANANTON ESQUER, AMELIA                 46H01 00000000218480000000000437 0000000000000000000000000000000000000000000000000         00 0000000000000000000000000000000000000000000000000000000000000000000000000000000000000                                                                                                                                                                                                                                                      
21902015F4603888120746038S         CLIMENT BISBAL, VICENTE                 46H01 00000001972550000000003945 0000000000000000000000000000000000000000000000000         00 0000000000000000000000000000000000000000000000000000000000000000000000000000000000000                                                                                                                                                                                                                                                      
21902015F4603888120746042L         GIL ESTARLICH, JOSE                     46H01 00000001363820000000002728 0000000000000000000000000000000000000000000000000         00 0000000000000000000000000000000000000000000000000000000000000000000000000000000000000                                                                                                                                                                                                                                                      
21902015F4603888120746046T         BISBAL BALAGUER, JUAN                   46H01 00000000053740000000000107 0000000000000000000000000000000000000000000000000         00 0000000000000000000000000000000000000000000000000000000000000000000000000000000000000                                                                                                                                                                                                                                                      
21902015F4603888120746054P         BISBAL ESTRUCH, JOSE MARIA              46H01 00000000249630000000000499 0000000000000000000000000000000000000000000000000         00 0000000000000000000000000000000000000000000000000000000000000000000000000000000000000                                                                                                                                                                                                                                                      
21902015F4603888120746060Z         SOLA BONO, VICENTE                      46H01 00000000145140000000000290 0000000000000000000000000000000000000000000000000         00 0000000000000000000000000000000000000000000000000000000000000000000000000000000000000                                                                                                                                                                                                                                                      
21902015F4603888120746067K         ORTIZ BARBERA, EMILIO                   46H01 00000000017390000000000035 0000000000000000000000000000000000000000000000000         00 0000000000000000000000000000000000000000000000000000000000000000000000000000000000000                                                                                                                                                                                                                                                      
21902015F4603888120746564N         ALEMANY MORENO,ADOLFO                   46H01 00000000841580000000001684 0000000000000000000000000000000000000000000000000         00 0000000000000000000000000000000000000000000000000000000000000000000000000000000000000                                                                                                                                                                                                                                                      
21902015F4603888120755035L         GIL ESTARLICH, SALVADOR                 46H01 00000000056620000000000113 0000000000000000000000000000000000000000000000000         00 0000000000000000000000000000000000000000000000000000000000000000000000000000000000000                                                                                                                                                                                                                                                      
21902015F4603888120755455W         BISBAL NOVERQUES, VICENTE               46H01 00000000428240000000000857 0000000000000000000000000000000000000000000000000         00 0000000000000000000000000000000000000000000000000000000000000000000000000000000000000                                                                                                                                                                                                                                                      
21902015F4603888120755515Q         CLIMENT APARISI, RAFAEL                 46H01 00000000121410000000000243 0000000000000000000000000000000000000000000000000         00 0000000000000000000000000000000000000000000000000000000000000000000000000000000000000                                                                                                                                                                                                                                                      
21902015F4603888120756019Z         CUÑAT ROCA, ALFREDO                     46H01 00000000096710000000000193 0000000000000000000000000000000000000000000000000         00 0000000000000000000000000000000000000000000000000000000000000000000000000000000000000                                                                                                                                                                                                                                                      
21902015F4603888120756135S         HERNANDORENA MIQUEL,VICENTA             46H01 00000000377730000000000755 0000000000000000000000000000000000000000000000000         00 0000000000000000000000000000000000000000000000000000000000000000000000000000000000000                                                                                                                                                                                                                                                      
21902015F4603888120756883G         LUCAS BONO, MARIA DOLORES               46H01 00000000279550000000000559 0000000000000000000000000000000000000000000000000         00 0000000000000000000000000000000000000000000000000000000000000000000000000000000000000                                                                                                                                                                                                                                                      
21902015F4603888120757130K         DONATE GIL, ALFREDO                     46H01 00000000194800000000000390 0000000000000000000000000000000000000000000000000         00 0000000000000000000000000000000000000000000000000000000000000000000000000000000000000                                                                                                                                                                                                                                                      
21902015F4603888120763299A         PELECHANO SANZ, REMIGIO                 46H01 00000000880560000000001762 0000000000000000000000000000000000000000000000000         00 0000000000000000000000000000000000000000000000000000000000000000000000000000000000000                                                                                                                                                                                                                                                      
21902015F4603888120763945M         GIL BONO, VICENTE                       46H01 00000000730630000000001461 0000000000000000000000000000000000000000000000000         00 0000000000000000000000000000000000000000000000000000000000000000000000000000000000000                                                                                                                                                                                                                                                      
21902015F4603888120764768T         BARBERA AÑO, ROSA MARIA                 46H01 00000000153310000000000307 0000000000000000000000000000000000000000000000000         00 0000000000000000000000000000000000000000000000000000000000000000000000000000000000000                                                                                                                                                                                                                                                      
21902015F4603888120764880C         SANZ BALLESTER, FIDEL                   46H01 00000000115160000000000230 0000000000000000000000000000000000000000000000000         00 0000000000000000000000000000000000000000000000000000000000000000000000000000000000000                                                                                                                                                                                                                                                      
21902015F4603888120765722B         ADAM BOLUDA, CARLOS                     46H01 00000000443830000000000887 0000000000000000000000000000000000000000000000000         00 0000000000000000000000000000000000000000000000000000000000000000000000000000000000000                                                                                                                                                                                                                                                      
21902015F4603888120766912M         BARBERA MARTINEZ,M.DOLORES              46H01 00000000970170000000001940 0000000000000000000000000000000000000000000000000         00 0000000000000000000000000000000000000000000000000000000000000000000000000000000000000                                                                                                                                                                                                                                                      
21902015F4603888120769082J         LORENTE FLORES, JOSEFA                  46H01 00000002394590000000004790 0000000000000000000000000000000000000000000000000         00 0000000000000000000000000000000000000000000000000000000000000000000000000000000000000                                                                                                                                                                                                                                                      
21902015F4603888120769676D         SALOM FLORDELIS, VICENTE                46H01 00000000208390000000000417 0000000000000000000000000000000000000000000000000         00 0000000000000000000000000000000000000000000000000000000000000000000000000000000000000                                                                                                                                                                                                                                                      
21902015F4603888120771629F         CELDA TARIN, EDUARDO                    46H01 00000000052410000000000105 0000000000000000000000000000000000000000000000000         00 0000000000000000000000000000000000000000000000000000000000000000000000000000000000000                                                                                                                                                                                                                                                      
21902015F4603888120772153W         LECHIGUERO SANZ, ISAURA                 46H01 00000000128440000000000257 0000000000000000000000000000000000000000000000000         00 0000000000000000000000000000000000000000000000000000000000000000000000000000000000000                                                                                                                                                                                                                                                      
21902015F4603888120772444V         ORTIZ ADAM,RAFAEL                       46H01 00000000190880000000000382 0000000000000000000000000000000000000000000000000         00 0000000000000000000000000000000000000000000000000000000000000000000000000000000000000                                                                                                                                                                                                                                                      
21902015F4603888120772705W         BARBERA JOARES, PEDRO                   46H01 00000000089290000000000179 0000000000000000000000000000000000000000000000000         00 0000000000000000000000000000000000000000000000000000000000000000000000000000000000000                                                                                                                                                                                                                                                      
21902015F4603888120774565E         MORANTE VALERO, EDUARDO                 46H01 00000000743230000000001486 0000000000000000000000000000000000000000000000000         00 0000000000000000000000000000000000000000000000000000000000000000000000000000000000000                                                                                                                                                                                                                                                      
21902015F4603888120775565X         FUENTES MORELL,DULCE NOMBRE DE MARIA    46H01 00000000239430000000000479 0000000000000000000000000000000000000000000000000         00 0000000000000000000000000000000000000000000000000000000000000000000000000000000000000                                                                                                                                                                                                                                                      
21902015F4603888120775998Y         CANET NOVERQUES, MARIA REMEDIO          46H01 00000000023150000000000046 0000000000000000000000000000000000000000000000000         00 0000000000000000000000000000000000000000000000000000000000000000000000000000000000000                                                                                                                                                                                                                                                      
21902015F4603888120776268T         REGAL ALIAGA,VICENTE                    46H01 00000000167690000000000335 0000000000000000000000000000000000000000000000000         00 0000000000000000000000000000000000000000000000000000000000000000000000000000000000000                                                                                                                                                                                                                                                      
21902015F4603888120776663G         ROCA MORENO, RAFAEL                     46H01 00000000127620000000000255 0000000000000000000000000000000000000000000000000         00 0000000000000000000000000000000000000000000000000000000000000000000000000000000000000                                                                                                                                                                                                                                                      
21902015F4603888120777259W         FORES ROSSELL, JOSEP ENRIC              46H01 00000000100680000000000201 0000000000000000000000000000000000000000000000000         00 0000000000000000000000000000000000000000000000000000000000000000000000000000000000000                                                                                                                                                                                                                                                      
21902015F4603888120778455W         LLISO SOLA, JOSE                        46H01 00000000071030000000000142 0000000000000000000000000000000000000000000000000         00 0000000000000000000000000000000000000000000000000000000000000000000000000000000000000                                                                                                                                                                                                                                                      
21902015F4603888120778544E         ORTIZ ADAM, ENRIQUE                     46H01 00000001395430000000002790 0000000000000000000000000000000000000000000000000         00 0000000000000000000000000000000000000000000000000000000000000000000000000000000000000                                                                                                                                                                                                                                                      
21902015F4603888120779726P         MINGUEZ SANZ, FRANCISCO                 46H01 00000000330950000000000662 0000000000000000000000000000000000000000000000000         00 0000000000000000000000000000000000000000000000000000000000000000000000000000000000000                                                                                                                                                                                                                                                      
21902015F4603888120780100Z         LECHIGUERO SANZ, ANTONIO                46H01 00000000168310000000000337 0000000000000000000000000000000000000000000000000         00 0000000000000000000000000000000000000000000000000000000000000000000000000000000000000                                                                                                                                                                                                                                                      
21902015F4603888120781086B         PRIMO TAPIA,JUAN JOSE                   46H01 00000002745300000000005491 0000000000000000000000000000000000000000000000000         00 0000000000000000000000000000000000000000000000000000000000000000000000000000000000000                                                                                                                                                                                                                                                      
21902015F4603888120781185H         GARCIA BONO, JOSEFA                     46H01 00000000718980000000001438 0000000000000000000000000000000000000000000000000         00 0000000000000000000000000000000000000000000000000000000000000000000000000000000000000                                                                                                                                                                                                                                                      
21902015F4603888120781921H         MENDOZA OJEDA, ANA MARIA                46H01 00000001571850000000003144 0000000000000000000000000000000000000000000000000         00 0000000000000000000000000000000000000000000000000000000000000000000000000000000000000                                                                                                                                                                                                                                                      
21902015F4603888120784031N         PERIS GIL , JOSE SALVADOR               46H01 00000000056270000000000113 0000000000000000000000000000000000000000000000000         00 0000000000000000000000000000000000000000000000000000000000000000000000000000000000000                                                                                                                                                                                                                                                      
21902015F4603888120784087E         LLORENS LLISO, PEDRO MANUEL             46H01 00000005771940000000011543 0000000000000000000000000000000000000000000000000         00 0000000000000000000000000000000000000000000000000000000000000000000000000000000000000                                                                                                                                                                                                                                                      
21902015F4603888120784964W         BONO CLIMENT, JOSE VICENTE              46H01 00000000475600000000000951 0000000000000000000000000000000000000000000000000         00 0000000000000000000000000000000000000000000000000000000000000000000000000000000000000                                                                                                                                                                                                                                                      
21902015F4603888120785401W         BARBERA JOARES, JOSE VTE.               46H01 00000000621950000000001244 0000000000000000000000000000000000000000000000000         00 0000000000000000000000000000000000000000000000000000000000000000000000000000000000000                                                                                                                                                                                                                                                      
21902015F4603888120785956M         MARTINEZ LEONARDO, FCO. BLAS            46H01 00000000116470000000000233 0000000000000000000000000000000000000000000000000         00 0000000000000000000000000000000000000000000000000000000000000000000000000000000000000                                                                                                                                                                                                                                                      
21902015F4603888120789231Z         SANZ TARIN , JORGE                      46H01 00000000039420000000000079 0000000000000000000000000000000000000000000000000         00 0000000000000000000000000000000000000000000000000000000000000000000000000000000000000                                                                                                                                                                                                                                                      
21902015F4603888120789339F         BONO ORTIZ, LUIS                        46H01 00000000064770000000000130 0000000000000000000000000000000000000000000000000         00 0000000000000000000000000000000000000000000000000000000000000000000000000000000000000                                                                                                                                                                                                                                                      
21902015F4603888120789579V         MARTINEZ DOMENECH, MARIA DOLORES        46H01 00000000189280000000000379 0000000000000000000000000000000000000000000000000         00 0000000000000000000000000000000000000000000000000000000000000000000000000000000000000                                                                                                                                                                                                                                                      
21902015F4603888120790442Y         LACUESTA LOPEZ,CARMEN                   46H01 00000000438170000000000876 0000000000000000000000000000000000000000000000000         00 0000000000000000000000000000000000000000000000000000000000000000000000000000000000000                                                                                                                                                                                                                                                      
21902015F4603888120790666T         CLIMENT RUBIO, MARIA CONSUELO           46H01 00000001823210000000003646 0000000000000000000000000000000000000000000000000         00 0000000000000000000000000000000000000000000000000000000000000000000000000000000000000                                                                                                                                                                                                                                                      
21902015F4603888120790683V         FERRER AÑO, MERCEDES                    46H01 00000000086730000000000173 0000000000000000000000000000000000000000000000000         00 0000000000000000000000000000000000000000000000000000000000000000000000000000000000000                                                                                                                                                                                                                                                      
21902015F4603888120791849X         DIAZ HERRERO, FRANCISCO MIGUEL          46H01 00000000420680000000000841 0000000000000000000000000000000000000000000000000         00 0000000000000000000000000000000000000000000000000000000000000000000000000000000000000                                                                                                                                                                                                                                                      
21902015F4603888120792089C         LLORENS LLISO, ROSA ANGELES             46H01 00000000336690000000000673 0000000000000000000000000000000000000000000000000         00 0000000000000000000000000000000000000000000000000000000000000000000000000000000000000                                                                                                                                                                                                                                                      
21902015F4603888120792856M         CLIMENT BONO, VTE. ENRIQUE              46H01 00000005186780000000010373 0000000000000000000000000000000000000000000000000         00 0000000000000000000000000000000000000000000000000000000000000000000000000000000000000                                                                                                                                                                                                                                                      
21902015F4603888120793431M         MONTAÑES MARTINEZ, ANA TERESA           46H01 00000000609130000000001218 0000000000000000000000000000000000000000000000000         00 0000000000000000000000000000000000000000000000000000000000000000000000000000000000000                                                                                                                                                                                                                                                      
21902015F4603888120793921N         BAGUENA BISBAL, MARIA  TERESA           46H01 00000001696230000000003392 0000000000000000000000000000000000000000000000000         00 0000000000000000000000000000000000000000000000000000000000000000000000000000000000000                                                                                                                                                                                                                                                      
21902015F4603888120798230C         BARBERA MARTINEZ, REYES                 46H01 00000000083730000000000167 0000000000000000000000000000000000000000000000000         00 0000000000000000000000000000000000000000000000000000000000000000000000000000000000000                                                                                                                                                                                                                                                      
21902015F4603888120799745V         BONO LAFUENTE, MA.CARMEN                46H01 00000000018720000000000037 0000000000000000000000000000000000000000000000000         00 0000000000000000000000000000000000000000000000000000000000000000000000000000000000000                                                                                                                                                                                                                                                      
21902015F4603888120804311Y         GIL NOVERQUES, MARIA JESUS              46H01 00000005017500000000010035 0000000000000000000000000000000000000000000000000         00 0000000000000000000000000000000000000000000000000000000000000000000000000000000000000                                                                                                                                                                                                                                                      
21902015F4603888120805563Q         CLIMENT RUBIO, OLGA VTA.                46H01 00000000020990000000000042 0000000000000000000000000000000000000000000000000         00 0000000000000000000000000000000000000000000000000000000000000000000000000000000000000                                                                                                                                                                                                                                                      
21902015F4603888120807205W         CLIMENT BONO, J.CARLOS                  46H01 00000005808220000000011617 0000000000000000000000000000000000000000000000000         00 0000000000000000000000000000000000000000000000000000000000000000000000000000000000000                                                                                                                                                                                                                                                      
21902015F4603888120819518X         MINGUEZ CALVO, HIGINIO                  46H01 00000000122920000000000246 0000000000000000000000000000000000000000000000000         00 0000000000000000000000000000000000000000000000000000000000000000000000000000000000000                                                                                                                                                                                                                                                      
21902015F4603888120826037C         VALERO RENAT,ALFREDO                    46H01 00000004622590000000009244 0000000000000000000000000000000000000000000000000         00 0000000000000000000000000000000000000000000000000000000000000000000000000000000000000                                                                                                                                                                                                                                                      
21902015F4603888120831041X         FLORDELIS GIL, HECTOR                   46H01 00000000658900000000001318 0000000000000000000000000000000000000000000000000         00 0000000000000000000000000000000000000000000000000000000000000000000000000000000000000                                                                                                                                                                                                                                                      
21902015F4603888120832871T         MARQUEZ DONATE, FRANCISCO JOSE          46H01 00000000434830000000000869 0000000000000000000000000000000000000000000000000         00 0000000000000000000000000000000000000000000000000000000000000000000000000000000000000                                                                                                                                                                                                                                                      
21902015F4603888120833974E         CLIMENT BARBERA,VICENTE                 46H01 00000000041510000000000083 0000000000000000000000000000000000000000000000000         00 0000000000000000000000000000000000000000000000000000000000000000000000000000000000000                                                                                                                                                                                                                                                      
21902015F4603888120834376X         GIL MINGUEZ,LEONOR                      46H01 00000000461870000000000924 0000000000000000000000000000000000000000000000000         00 0000000000000000000000000000000000000000000000000000000000000000000000000000000000000                                                                                                                                                                                                                                                      
21902015F4603888122502512W         BALAGUER BISBAL, RAMON                  46H01 00000000026210000000000052 0000000000000000000000000000000000000000000000000         00 0000000000000000000000000000000000000000000000000000000000000000000000000000000000000                                                                                                                                                                                                                                                      
21902015F4603888122513540J         MARTINEZ CERVERO, JUAN                  46H01 00000001092280000000002185 0000000000000000000000000000000000000000000000000         00 0000000000000000000000000000000000000000000000000000000000000000000000000000000000000                                                                                                                                                                                                                                                      
21902015F4603888122527434S         SANZ BALLESTER, VICENTE                 46H01 00000001503010000000003006 0000000000000000000000000000000000000000000000000         00 0000000000000000000000000000000000000000000000000000000000000000000000000000000000000                                                                                                                                                                                                                                                      
21902015F4603888122535375K         BALAGUER SERRANO, MARIA JOSEFA          46H01 00000000044370000000000089 0000000000000000000000000000000000000000000000000         00 0000000000000000000000000000000000000000000000000000000000000000000000000000000000000                                                                                                                                                                                                                                                      
21902015F4603888122552181Z         BALAGUER SERRANO, MARIA REMEDIOS        46H01 00000000698970000000001398 0000000000000000000000000000000000000000000000000         00 0000000000000000000000000000000000000000000000000000000000000000000000000000000000000                                                                                                                                                                                                                                                      
21902015F4603888122583503X         ESTEVE FLORDELIS, JESUS                 46H01 00000000014640000000000029 0000000000000000000000000000000000000000000000000         00 0000000000000000000000000000000000000000000000000000000000000000000000000000000000000                                                                                                                                                                                                                                                      
21902015F4603888122666445Z         MATA RODRIGUEZ, JUANA                   46H01 00000000168770000000000338 0000000000000000000000000000000000000000000000000         00 0000000000000000000000000000000000000000000000000000000000000000000000000000000000000                                                                                                                                                                                                                                                      
21902015F4603888124335233Z         FUENTES RAMON,JOSE                      46H01 00000000333110000000000666 0000000000000000000000000000000000000000000000000         00 0000000000000000000000000000000000000000000000000000000000000000000000000000000000000                                                                                                                                                                                                                                                      
21902015F4603888124340849H         DURA MIQUEL, BEGOÑA                     46H01 00000000092600000000000185 0000000000000000000000000000000000000000000000000         00 0000000000000000000000000000000000000000000000000000000000000000000000000000000000000                                                                                                                                                                                                                                                      
21902015F4603888124360743V         IBAÑEZ SANZ, VICENTE                    46H01 00000000389360000000000779 0000000000000000000000000000000000000000000000000         00 0000000000000000000000000000000000000000000000000000000000000000000000000000000000000                                                                                                                                                                                                                                                      
21902015F4603888152637038C         MARTINEZ NAVARRO, FRANCISCO JAVIER      46H01 00000000186520000000000373 0000000000000000000000000000000000000000000000000         00 0000000000000000000000000000000000000000000000000000000000000000000000000000000000000                                                                                                                                                                                                                                                      
21902015F4603888152641480T         GUIJARRO NATIVIDAD, JOSEFA              46H01 00000000023830000000000048 0000000000000000000000000000000000000000000000000         00 0000000000000000000000000000000000000000000000000000000000000000000000000000000000000                                                                                                                                                                                                                                                      
21902015F4603888152641566V         LLORENS FUERTES, EVA                    46H01 00000000210640000000000421 0000000000000000000000000000000000000000000000000         00 0000000000000000000000000000000000000000000000000000000000000000000000000000000000000                                                                                                                                                                                                                                                      
21902015F4603888153095572A         GOMEZ GIMENEZ, ANA                      46H01 00000000312720000000000625 0000000000000000000000000000000000000000000000000         00 0000000000000000000000000000000000000000000000000000000000000000000000000000000000000                                                                                                                                                                                                                                                      
21902015F4603888153603595W         BARBERA PUCHALT, PEDRO                  46H01 00000002307520000000004614 0000000000000000000000000000000000000000000000000         00 0000000000000000000000000000000000000000000000000000000000000000000000000000000000000                                                                                                                                                                                                                                                      
21902015F4603888173527577G         CLIMENT MORATO, JUAN BOSCO              46H01 00000000019430000000000039 0000000000000000000000000000000000000000000000000         00 0000000000000000000000000000000000000000000000000000000000000000000000000000000000000                                                                                                                                                                                                                                                      
21902015F4603888173549609W         BARBERA ROS, MA.CARMEN                  46H01 00000000047850000000000096 0000000000000000000000000000000000000000000000000         00 0000000000000000000000000000000000000000000000000000000000000000000000000000000000000                                                                                                                                                                                                                                                      
21902015F4603888173549618B         BONO DONAT, VERONICA                    46H01 00000001276410000000002553 0000000000000000000000000000000000000000000000000         00 0000000000000000000000000000000000000000000000000000000000000000000000000000000000000                                                                                                                                                                                                                                                      
21902015F4603888173560938S         NAVARRO PEIRO,JAVIER                    46H01 00000000077250000000000155 0000000000000000000000000000000000000000000000000         00 0000000000000000000000000000000000000000000000000000000000000000000000000000000000000                                                                                                                                                                                                                                                      
21902015F4603888173570261T         MARTINEZ CURSA, MARIA  JOSE             46H01 00000000494200000000000988 0000000000000000000000000000000000000000000000000         00 0000000000000000000000000000000000000000000000000000000000000000000000000000000000000                                                                                                                                                                                                                                                      
21902015F4603888173581903G         ORTIZ NAVARRO, JOSE                     46H01 00000000008510000000000017 0000000000000000000000000000000000000000000000000         00 0000000000000000000000000000000000000000000000000000000000000000000000000000000000000                                                                                                                                                                                                                                                      
21902015F4603888173582774R         GONZALEZ BISBAL, DIEGO                  46H01 00000000484820000000000970 0000000000000000000000000000000000000000000000000         00 0000000000000000000000000000000000000000000000000000000000000000000000000000000000000                                                                                                                                                                                                                                                      
21902015F4603888173640261B         LAZA SOLA, FRANCISCO                    46H01 00000000264920000000000530 0000000000000000000000000000000000000000000000000         00 0000000000000000000000000000000000000000000000000000000000000000000000000000000000000                                                                                                                                                                                                                                                      
21902015F4603888173772452K         CLIMENT RUBIO, NOELIA                   46H01 00000000695710000000001392 0000000000000000000000000000000000000000000000000         00 0000000000000000000000000000000000000000000000000000000000000000000000000000000000000                                                                                                                                                                                                                                                      
21902015F4603888173772466N         AÑO CLIMENT, RAUL                       46H01 00000000568430000000001137 0000000000000000000000000000000000000000000000000         00 0000000000000000000000000000000000000000000000000000000000000000000000000000000000000                                                                                                                                                                                                                                                      
21902015F4603888173772561S         DIEZ GIMENO, MARIA ESTELA               46H01 00000000027470000000000055 0000000000000000000000000000000000000000000000000         00 0000000000000000000000000000000000000000000000000000000000000000000000000000000000000                                                                                                                                                                                                                                                      
21902015F4603888173772565L         MARTINEZ CANET, MODESTO                 46H01 00000000908990000000001818 0000000000000000000000000000000000000000000000000         00 0000000000000000000000000000000000000000000000000000000000000000000000000000000000000                                                                                                                                                                                                                                                      
21902015F4603888173772566C         SANCHIS CLIMENT, VTE. JOSE              46H01 00000000110590000000000221 0000000000000000000000000000000000000000000000000         00 0000000000000000000000000000000000000000000000000000000000000000000000000000000000000                                                                                                                                                                                                                                                      
21902015F4603888173772583Z         CORBERA GIL, CARLOS                     46H01 00000001198450000000002397 0000000000000000000000000000000000000000000000000         00 0000000000000000000000000000000000000000000000000000000000000000000000000000000000000                                                                                                                                                                                                                                                      
21902015F4603888173772586V         FLORDELIS ADAM, ALICIA                  46H01 00000000033590000000000068 0000000000000000000000000000000000000000000000000         00 0000000000000000000000000000000000000000000000000000000000000000000000000000000000000                                                                                                                                                                                                                                                      
21902015F4603888173779360Y         NOGUES MARTINEZ, INMACULADA             46H01 00000002669050000000005338 0000000000000000000000000000000000000000000000000         00 0000000000000000000000000000000000000000000000000000000000000000000000000000000000000                                                                                                                                                                                                                                                      
21902015F4603888173779390J         ALVAREZ CASTELLO, MARIA  JOSE           46H01 00000000008150000000000016 0000000000000000000000000000000000000000000000000         00 0000000000000000000000000000000000000000000000000000000000000000000000000000000000000                                                                                                                                                                                                                                                      
21902015F4603888173925135F         ALVENTOSA MARTINEZ, AMADEO              46H01 00000000095360000000000191 0000000000000000000000000000000000000000000000000         00 0000000000000000000000000000000000000000000000000000000000000000000000000000000000000                                                                                                                                                                                                                                                      
21902015F4603888173925136P         SANANTON ESQUER, VICENTE                46H01 00000000046070000000000092 0000000000000000000000000000000000000000000000000         00 0000000000000000000000000000000000000000000000000000000000000000000000000000000000000                                                                                                                                                                                                                                                      
21902015F4603888173925267R         BISBAL LLORENS, CARMEN                  46H01 00000000255840000000000511 0000000000000000000000000000000000000000000000000         00 0000000000000000000000000000000000000000000000000000000000000000000000000000000000000                                                                                                                                                                                                                                                      
21902015F4603888173926444M         MONTAGUT ORTIZ, JOSEFA AURORA           46H01 00000000305040000000000610 0000000000000000000000000000000000000000000000000         00 0000000000000000000000000000000000000000000000000000000000000000000000000000000000000                                                                                                                                                                                                                                                      
21902015F4603888173927357K         NAVARRO BRIZ, JOAQUIN                   46H01 00000000336350000000000673 0000000000000000000000000000000000000000000000000         00 0000000000000000000000000000000000000000000000000000000000000000000000000000000000000                                                                                                                                                                                                                                                      
21902015F4603888173928147Y         LIÑANA TORRES, ANTONIO                  46H01 00000000074910000000000150 0000000000000000000000000000000000000000000000000         00 0000000000000000000000000000000000000000000000000000000000000000000000000000000000000                                                                                                                                                                                                                                                      
21902015F4603888173929697S         BAREA MOYA, JOAQUIN                     46H01 00000000967030000000001935 0000000000000000000000000000000000000000000000000         00 0000000000000000000000000000000000000000000000000000000000000000000000000000000000000                                                                                                                                                                                                                                                      
21902015F4603888173929701L         MARTINEZ LLORENS, ROSA                  46H01 00000000021500000000000043 0000000000000000000000000000000000000000000000000         00 0000000000000000000000000000000000000000000000000000000000000000000000000000000000000                                                                                                                                                                                                                                                      
21902015F4603888173929713P         CLIMENT APARISI, JOSEFA                 46H01 00000000442500000000000885 0000000000000000000000000000000000000000000000000         00 0000000000000000000000000000000000000000000000000000000000000000000000000000000000000                                                                                                                                                                                                                                                      
21902015F4603888173929721Q         BALAGUER CALABUIG, RAMON                46H01 00000000022280000000000045 0000000000000000000000000000000000000000000000000         00 0000000000000000000000000000000000000000000000000000000000000000000000000000000000000                                                                                                                                                                                                                                                      
21902015F4603888173929776W         SOLA BONO, LUIS                         46H01 00000000269280000000000538 0000000000000000000000000000000000000000000000000         00 0000000000000000000000000000000000000000000000000000000000000000000000000000000000000                                                                                                                                                                                                                                                      
21902015F4603888173929786N         SANZ SOLA, EUGENIO                      46H01 00000000112830000000000226 0000000000000000000000000000000000000000000000000         00 0000000000000000000000000000000000000000000000000000000000000000000000000000000000000                                                                                                                                                                                                                                                      
21902015F4603888173933976Q         ALVENTOSA MARTINEZ, MIGUEL              46H01 00000000721870000000001444 0000000000000000000000000000000000000000000000000         00 0000000000000000000000000000000000000000000000000000000000000000000000000000000000000                                                                                                                                                                                                                                                      
21902015F4603888173934342Z         GIL OSCA,DOLORES                        46H01 00000001142920000000002286 0000000000000000000000000000000000000000000000000         00 0000000000000000000000000000000000000000000000000000000000000000000000000000000000000                                                                                                                                                                                                                                                      
21902015F4603888173935848W         ROIG BAGUENA, VICENTE                   46H01 00000000050670000000000101 0000000000000000000000000000000000000000000000000         00 0000000000000000000000000000000000000000000000000000000000000000000000000000000000000                                                                                                                                                                                                                                                      
21902015F4603888173936344S         ROVIRA FERRIS,FRANCISCO                 46H01 00000001781070000000003562 0000000000000000000000000000000000000000000000000         00 0000000000000000000000000000000000000000000000000000000000000000000000000000000000000                                                                                                                                                                                                                                                      
21902015F4603888173937909Q         ROIG ESCUTIA, ANGEL FRANCISCO           46H01 00000002716580000000005433 0000000000000000000000000000000000000000000000000         00 0000000000000000000000000000000000000000000000000000000000000000000000000000000000000                                                                                                                                                                                                                                                      
21902015F4603888173938268F         DE DIOS MARTINEZ, PEDRO                 46H01 00000000053220000000000106 0000000000000000000000000000000000000000000000000         00 0000000000000000000000000000000000000000000000000000000000000000000000000000000000000                                                                                                                                                                                                                                                      
21902015F4603888173938315P         ROIG ESCUTIA, JOSE                      46H01 00000000059980000000000120 0000000000000000000000000000000000000000000000000         00 0000000000000000000000000000000000000000000000000000000000000000000000000000000000000                                                                                                                                                                                                                                                      
21902015F4603888173938554V         FLORDELIS SANZ, DOLORES                 46H01 00000000454920000000000910 0000000000000000000000000000000000000000000000000         00 0000000000000000000000000000000000000000000000000000000000000000000000000000000000000                                                                                                                                                                                                                                                      
21902015F4603888173938564G         BARBERA DIEZ, RAFAEL                    46H01 00000000724650000000001449 0000000000000000000000000000000000000000000000000         00 0000000000000000000000000000000000000000000000000000000000000000000000000000000000000                                                                                                                                                                                                                                                      
21902015F4603888173939839Z         ROIG BAGUENA, SALVADOR                  46H01 00000000163070000000000326 0000000000000000000000000000000000000000000000000         00 0000000000000000000000000000000000000000000000000000000000000000000000000000000000000                                                                                                                                                                                                                                                      
21902015F4603888173941531G         TAPIA MICO,JOSEP LUIS                   46H01 00000000286060000000000572 0000000000000000000000000000000000000000000000000         00 0000000000000000000000000000000000000000000000000000000000000000000000000000000000000                                                                                                                                                                                                                                                      
21902015F4603888173942712N         ASENSI BONO, EMILIO                     46H01 00000000150270000000000301 0000000000000000000000000000000000000000000000000         00 0000000000000000000000000000000000000000000000000000000000000000000000000000000000000                                                                                                                                                                                                                                                      
21902015F4603888173942733X         RUIZ VILLANUEVA, JOSE VICENTE           46H01 00000000421340000000000843 0000000000000000000000000000000000000000000000000         00 0000000000000000000000000000000000000000000000000000000000000000000000000000000000000                                                                                                                                                                                                                                                      
21902015F4603888173942739Q         CURSA MANCHANO, MIGUEL                  46H01 00000000276460000000000553 0000000000000000000000000000000000000000000000000         00 0000000000000000000000000000000000000000000000000000000000000000000000000000000000000                                                                                                                                                                                                                                                      
21902015F46038881E96135439         TAPIA LOPEZ, C.B.                       46H01 00000002935440000000005871 0000000000000000000000000000000000000000000000000         00 0000000000000000000000000000000000000000000000000000000000000000000000000000000000000                                                                                                                                                                                                                                                      
21902015F46038881E97186894         BOLUDA ROCHER,C.B.                      46H01 00000000976850000000001954 0000000000000000000000000000000000000000000000000         00 0000000000000000000000000000000000000000000000000000000000000000000000000000000000000                                                                                                                                                                                                                                                      
21902015F46038881X8520297Q         STOICESCU, CORNELIA                     46H01 00000000927830000000001855 0000000000000000000000000000000000000000000000000         00 0000000000000000000000000000000000000000000000000000000000000000000000000000000000000                                                                                                                                                                                                                                                      
