11902014F46024196ALZICOOP COOP V                         D962404136Enrique Llorca Martínez                 0000000000000  0000000000000000000402 000000000803836000000042589411                                                                                                                                                                                                                                                                                                                                     
21902014F4602419605045208C         GARCIA ROBLES, PEDRO                    46H01 00000000107130000000000215 0000000000000000000000000000000000000000000000000         0000000000000000000000000000000000000000000000000000000000000000000000000000000000000000                                                                                                                                                                                                                                                      
21902014F4602419606171710M         MEDINA MARTINEZ, VICENTE                46H01 00000000138590000000000277 0000000000000000000000000000000000000000000000000         0000000000000000000000000000000000000000000000000000000000000000000000000000000000000000                                                                                                                                                                                                                                                      
21902014F4602419607260758A         MORA BENAVENT, OMAR                     46H01 00000000106300000000000213 0000000000000000000000000000000000000000000000000         0000000000000000000000000000000000000000000000000000000000000000000000000000000000000000                                                                                                                                                                                                                                                      
21902014F4602419607819969S         REDERO LUIS, MARIA CARMEN               46H01 00000008536790000000017074 0000000000000000000000000000000000000000000000000         0000000000000000000000000000000000000000000000000000000000000000000000000000000000000000                                                                                                                                                                                                                                                      
21902014F4602419610018274A         MATE TORDABLE, JOSE LUIS                46H01 00000000093980000000000188 0000000000000000000000000000000000000000000000000         0000000000000000000000000000000000000000000000000000000000000000000000000000000000000000                                                                                                                                                                                                                                                      
21902014F4602419610542158Q         MARTINEZ RIBES, CARMEN                  46H01 00000000177710000000000356 0000000000000000000000000000000000000000000000000         0000000000000000000000000000000000000000000000000000000000000000000000000000000000000000                                                                                                                                                                                                                                                      
21902014F4602419615483644K         HEREDIA HEREDIA, BERNARDO               46H01 00000002053000000000004106 0000000000000000000000000000000000000000000000000         0000000000000000000000000000000000000000000000000000000000000000000000000000000000000000                                                                                                                                                                                                                                                      
21902014F4602419619221134B         DARIES MARTINEZ, ENRIQUE                46H01 00000000041380000000000083 0000000000000000000000000000000000000000000000000         0000000000000000000000000000000000000000000000000000000000000000000000000000000000000000                                                                                                                                                                                                                                                      
21902014F4602419619287788B         LUCAS PI, ELOY                          46H01 00000000093740000000000188 0000000000000000000000000000000000000000000000000         0000000000000000000000000000000000000000000000000000000000000000000000000000000000000000                                                                                                                                                                                                                                                      
21902014F4602419619495337P         BENET TAMARIT, JOAQUIN                  46H01 00000000038850000000000078 0000000000000000000000000000000000000000000000000         0000000000000000000000000000000000000000000000000000000000000000000000000000000000000000                                                                                                                                                                                                                                                      
21902014F4602419619978876H         SASTRE SENDRA, FRANCISCO                46H01 00000002106920000000004214 0000000000000000000000000000000000000000000000000         0000000000000000000000000000000000000000000000000000000000000000000000000000000000000000                                                                                                                                                                                                                                                      
21902014F4602419619980290Y         PERELLO VERCHER, VICENTE                46H01 00000004003970000000008009 0000000000000000000000000000000000000000000000000         0000000000000000000000000000000000000000000000000000000000000000000000000000000000000000                                                                                                                                                                                                                                                      
21902014F4602419619993412H         COSTA SANZ, VICENTE ANTONIO             46H01 00000000220360000000000441 0000000000000000000000000000000000000000000000000         0000000000000000000000000000000000000000000000000000000000000000000000000000000000000000                                                                                                                                                                                                                                                      
21902014F4602419620010232W         VIDAL MARTORELL, JOSE AMADEO            46H01 00000000460960000000000922 0000000000000000000000000000000000000000000000000         0000000000000000000000000000000000000000000000000000000000000000000000000000000000000000                                                                                                                                                                                                                                                      
21902014F4602419620012387H         APARISI ORTUÑO, FRANCISCO               46H01 00000000286750000000000574 0000000000000000000000000000000000000000000000000         0000000000000000000000000000000000000000000000000000000000000000000000000000000000000000                                                                                                                                                                                                                                                      
21902014F4602419620025160A         BOLUFER MELIA, JUAN A.                  46H01 00000003807130000000007614 0000000000000000000000000000000000000000000000000         0000000000000000000000000000000000000000000000000000000000000000000000000000000000000000                                                                                                                                                                                                                                                      
21902014F4602419620027947F         MATE DURA, VICENTE                      46H01 00000005495020000000010989 0000000000000000000000000000000000000000000000000         0000000000000000000000000000000000000000000000000000000000000000000000000000000000000000                                                                                                                                                                                                                                                      
21902014F4602419620039188R         ESCRIHUELA PEIRO, BATISTE               46H01 00000000093970000000000188 0000000000000000000000000000000000000000000000000         0000000000000000000000000000000000000000000000000000000000000000000000000000000000000000                                                                                                                                                                                                                                                      
21902014F4602419620086867R         COMPANY FERRER, BALDU                   46H01 00000000038320000000000077 0000000000000000000000000000000000000000000000000         0000000000000000000000000000000000000000000000000000000000000000000000000000000000000000                                                                                                                                                                                                                                                      
21902014F4602419620106958J         TUR GRAU, FRANCISCO                     46H01 00000004067670000000008135 0000000000000000000000000000000000000000000000000         0000000000000000000000000000000000000000000000000000000000000000000000000000000000000000                                                                                                                                                                                                                                                      
21902014F4602419620109344F         MARTI CISCAR, CONCEPCION                46H01 00000001652710000000003305 0000000000000000000000000000000000000000000000000         0000000000000000000000000000000000000000000000000000000000000000000000000000000000000000                                                                                                                                                                                                                                                      
21902014F4602419620136961R         MARTI BONO, ENCARNACION                 46H01 00000000020080000000000040 0000000000000000000000000000000000000000000000000         0000000000000000000000000000000000000000000000000000000000000000000000000000000000000000                                                                                                                                                                                                                                                      
21902014F4602419620140763P         TORMOS VALLET, JOAQUIM                  46H01 00000001097710000000002195 0000000000000000000000000000000000000000000000000         0000000000000000000000000000000000000000000000000000000000000000000000000000000000000000                                                                                                                                                                                                                                                      
21902014F4602419620143274N         CASTELLO GIMENO, JUANA                  46H01 00000005800940000000011602 0000000000000000000000000000000000000000000000000         0000000000000000000000000000000000000000000000000000000000000000000000000000000000000000                                                                                                                                                                                                                                                      
21902014F4602419620143962X         COLOM MARI, ROSA                        46H01 00000000863680000000001727 0000000000000000000000000000000000000000000000000         0000000000000000000000000000000000000000000000000000000000000000000000000000000000000000                                                                                                                                                                                                                                                      
21902014F4602419620145989J         PIRIS MARTINEZ, JOSE                    46H01 00000001055320000000002111 0000000000000000000000000000000000000000000000000         0000000000000000000000000000000000000000000000000000000000000000000000000000000000000000                                                                                                                                                                                                                                                      
21902014F4602419620326394Y         SANCHIS PERALES, RICARDO                46H01 00000000619430000000001239 0000000000000000000000000000000000000000000000000         0000000000000000000000000000000000000000000000000000000000000000000000000000000000000000                                                                                                                                                                                                                                                      
21902014F4602419620355827E         OLTRA VERCHER, FACUNDO                  46H01 00000000039830000000000080 0000000000000000000000000000000000000000000000000         0000000000000000000000000000000000000000000000000000000000000000000000000000000000000000                                                                                                                                                                                                                                                      
21902014F4602419620411483H         ESTEPA CASTRO, MANUEL                   46H01 00000002714400000000005429 0000000000000000000000000000000000000000000000000         0000000000000000000000000000000000000000000000000000000000000000000000000000000000000000                                                                                                                                                                                                                                                      
21902014F4602419620423893P         VIDAL ORDIÑANA, JULIA MARIA             46H01 00000000024640000000000049 0000000000000000000000000000000000000000000000000         0000000000000000000000000000000000000000000000000000000000000000000000000000000000000000                                                                                                                                                                                                                                                      
21902014F4602419620428508T         RODRIGUEZ RICHART, JUSTINIANO           46H01 00000000155870000000000312 0000000000000000000000000000000000000000000000000         0000000000000000000000000000000000000000000000000000000000000000000000000000000000000000                                                                                                                                                                                                                                                      
21902014F4602419620428999P         LLOPIS UBEDA, CRISTINA                  46H01 00000000052790000000000106 0000000000000000000000000000000000000000000000000         0000000000000000000000000000000000000000000000000000000000000000000000000000000000000000                                                                                                                                                                                                                                                      
21902014F4602419620435718B         HERNANDEZ MORRIO, FEDERICO              46H01 00000000775950000000001552 0000000000000000000000000000000000000000000000000         0000000000000000000000000000000000000000000000000000000000000000000000000000000000000000                                                                                                                                                                                                                                                      
21902014F4602419620437097X         SANCHIS SIGNES, JOSE MOISES             46H01 00000002129010000000004258 0000000000000000000000000000000000000000000000000         0000000000000000000000000000000000000000000000000000000000000000000000000000000000000000                                                                                                                                                                                                                                                      
21902014F4602419620440796Y         TORRES MORENO, JAVIER                   46H01 00000000059020000000000118 0000000000000000000000000000000000000000000000000         0000000000000000000000000000000000000000000000000000000000000000000000000000000000000000                                                                                                                                                                                                                                                      
21902014F4602419620441192B         RODRIGUEZ SOLER, CRISTOBAL              46H01 00000000098260000000000197 0000000000000000000000000000000000000000000000000         0000000000000000000000000000000000000000000000000000000000000000000000000000000000000000                                                                                                                                                                                                                                                      
21902014F4602419620444191C         MARCO MOMPARLER, ENRIQUE                46H01 00000000160660000000000321 0000000000000000000000000000000000000000000000000         0000000000000000000000000000000000000000000000000000000000000000000000000000000000000000                                                                                                                                                                                                                                                      
21902014F4602419620445343E         MUÑOZ GOMEZ, VANESSA                    46H01 00000001780080000000003560 0000000000000000000000000000000000000000000000000         0000000000000000000000000000000000000000000000000000000000000000000000000000000000000000                                                                                                                                                                                                                                                      
21902014F4602419620445546H         PELLICER CALATAYUD, FRANCISCO           46H01 00000000474100000000000948 0000000000000000000000000000000000000000000000000         0000000000000000000000000000000000000000000000000000000000000000000000000000000000000000                                                                                                                                                                                                                                                      
21902014F4602419620448364F         CAEROL RIBES, CARLOS                    46H01 00000000164640000000000330 0000000000000000000000000000000000000000000000000         0000000000000000000000000000000000000000000000000000000000000000000000000000000000000000                                                                                                                                                                                                                                                      
21902014F4602419620496773R         ALCALDE GINER, AITOR                    46H01 00000000076640000000000153 0000000000000000000000000000000000000000000000000         0000000000000000000000000000000000000000000000000000000000000000000000000000000000000000                                                                                                                                                                                                                                                      
21902014F4602419620633868Q         ESPAÑA MORENO, JOSE                     46H01 00000000520200000000001040 0000000000000000000000000000000000000000000000000         0000000000000000000000000000000000000000000000000000000000000000000000000000000000000000                                                                                                                                                                                                                                                      
21902014F4602419620634540K         PAU OLIVER, JOSE                        46H01 00000000110490000000000221 0000000000000000000000000000000000000000000000000         0000000000000000000000000000000000000000000000000000000000000000000000000000000000000000                                                                                                                                                                                                                                                      
21902014F4602419620635904M         BELLA ESPAÑA, ANTONIO                   46H01 00000000121260000000000243 0000000000000000000000000000000000000000000000000         0000000000000000000000000000000000000000000000000000000000000000000000000000000000000000                                                                                                                                                                                                                                                      
21902014F4602419620642967F         CAMARASA BONASTRE, BERNARDO             46H01 00000002374270000000004748 0000000000000000000000000000000000000000000000000         0000000000000000000000000000000000000000000000000000000000000000000000000000000000000000                                                                                                                                                                                                                                                      
21902014F4602419620643829H         CASTERA SERIOLS, BERNARDO               46H01 00000000286840000000000574 0000000000000000000000000000000000000000000000000         0000000000000000000000000000000000000000000000000000000000000000000000000000000000000000                                                                                                                                                                                                                                                      
21902014F4602419620643909Y         GARRIGUES MORENO, AGUSTIN               46H01 00000000166370000000000332 0000000000000000000000000000000000000000000000000         0000000000000000000000000000000000000000000000000000000000000000000000000000000000000000                                                                                                                                                                                                                                                      
21902014F4602419620643989V         PERIS MONTALVA, BERNARDO                46H01 00000000698450000000001398 0000000000000000000000000000000000000000000000000         0000000000000000000000000000000000000000000000000000000000000000000000000000000000000000                                                                                                                                                                                                                                                      
21902014F4602419620644332S         MASCARELL CLARI, TERESA                 46H01 00000000347310000000000693 0000000000000000000000000000000000000000000000000         0000000000000000000000000000000000000000000000000000000000000000000000000000000000000000                                                                                                                                                                                                                                                      
21902014F4602419620644705C         PERIS MARTI, FRANCISCO                  46H01 00000000315780000000000631 0000000000000000000000000000000000000000000000000         0000000000000000000000000000000000000000000000000000000000000000000000000000000000000000                                                                                                                                                                                                                                                      
21902014F4602419620644750L         VILA MONTAGUD, JOSE SALVADOR            46H01 00000000152180000000000304 0000000000000000000000000000000000000000000000000         0000000000000000000000000000000000000000000000000000000000000000000000000000000000000000                                                                                                                                                                                                                                                      
21902014F4602419620645525N         OLIVER CARRASCOSA, CONCEPCION           46H01 00000000143260000000000287 0000000000000000000000000000000000000000000000000         0000000000000000000000000000000000000000000000000000000000000000000000000000000000000000                                                                                                                                                                                                                                                      
21902014F4602419620649145K         PASCUAL CARRIO, SALVADOR                46H01 00000000145600000000000291 0000000000000000000000000000000000000000000000000         0000000000000000000000000000000000000000000000000000000000000000000000000000000000000000                                                                                                                                                                                                                                                      
21902014F4602419620652147X         COGOLLOS BATALLER, CONCEPCION           46H01 00000001974560000000003948 0000000000000000000000000000000000000000000000000         0000000000000000000000000000000000000000000000000000000000000000000000000000000000000000                                                                                                                                                                                                                                                      
21902014F4602419620653353C         CARBONELL CANET, JUAN                   46H01 00000000275380000000000551 0000000000000000000000000000000000000000000000000         0000000000000000000000000000000000000000000000000000000000000000000000000000000000000000                                                                                                                                                                                                                                                      
21902014F4602419620655819W         FERRER MARTINEZ, BERNARDA               46H01 00000000386270000000000773 0000000000000000000000000000000000000000000000000         0000000000000000000000000000000000000000000000000000000000000000000000000000000000000000                                                                                                                                                                                                                                                      
21902014F4602419620656047T         OLCINA PONS, BAUTISTA                   46H01 00000000212330000000000425 0000000000000000000000000000000000000000000000000         0000000000000000000000000000000000000000000000000000000000000000000000000000000000000000                                                                                                                                                                                                                                                      
21902014F4602419620658537Y         SANJUAN BONASTRE, BAUTISTA              46H01 00000000288780000000000577 0000000000000000000000000000000000000000000000000         0000000000000000000000000000000000000000000000000000000000000000000000000000000000000000                                                                                                                                                                                                                                                      
21902014F4602419620667490N         PEREZ PEREZ, M. CARMEN                  46H01 00000001522020000000003044 0000000000000000000000000000000000000000000000000         0000000000000000000000000000000000000000000000000000000000000000000000000000000000000000                                                                                                                                                                                                                                                      
21902014F4602419620670028C         TERRES HIGON, FRANCISCO                 46H01 00000000129750000000000260 0000000000000000000000000000000000000000000000000         0000000000000000000000000000000000000000000000000000000000000000000000000000000000000000                                                                                                                                                                                                                                                      
21902014F4602419620681807T         CAPELLA CAMARENA, JUAN                  46H01 00000000237700000000000475 0000000000000000000000000000000000000000000000000         0000000000000000000000000000000000000000000000000000000000000000000000000000000000000000                                                                                                                                                                                                                                                      
21902014F4602419620685794P         HERNANDIS ARTAL, JOSEFA                 46H01 00000001898870000000003798 0000000000000000000000000000000000000000000000000         0000000000000000000000000000000000000000000000000000000000000000000000000000000000000000                                                                                                                                                                                                                                                      
21902014F4602419620686149H         ESCRIVA CHORDI, EMILIO                  46H01 00000000315100000000000630 0000000000000000000000000000000000000000000000000         0000000000000000000000000000000000000000000000000000000000000000000000000000000000000000                                                                                                                                                                                                                                                      
21902014F4602419620705859V         RIPOLL BALDOVI, ENRIQUE                 46H01 00000000363170000000000726 0000000000000000000000000000000000000000000000000         0000000000000000000000000000000000000000000000000000000000000000000000000000000000000000                                                                                                                                                                                                                                                      
21902014F4602419620712380Y         SEGUI MARTINEZ, ENRIQUE                 46H01 00000000200100000000000401 0000000000000000000000000000000000000000000000000         0000000000000000000000000000000000000000000000000000000000000000000000000000000000000000                                                                                                                                                                                                                                                      
21902014F4602419620712718E         PERPIÑA MENGUAL, REMEDIOS               46H01 00000000881860000000001764 0000000000000000000000000000000000000000000000000         0000000000000000000000000000000000000000000000000000000000000000000000000000000000000000                                                                                                                                                                                                                                                      
21902014F4602419620717374D         BARBERA CONEJERO, ANTONIO               46H01 00000000558500000000001117 0000000000000000000000000000000000000000000000000         0000000000000000000000000000000000000000000000000000000000000000000000000000000000000000                                                                                                                                                                                                                                                      
21902014F4602419620719173Z         NICOLAU CUCARELLA, JULIAN               46H01 00000000063490000000000127 0000000000000000000000000000000000000000000000000         0000000000000000000000000000000000000000000000000000000000000000000000000000000000000000                                                                                                                                                                                                                                                      
21902014F4602419620721901M         GARCIA CAÑUELO, PEDRO                   46H01 00000000403060000000000806 0000000000000000000000000000000000000000000000000         0000000000000000000000000000000000000000000000000000000000000000000000000000000000000000                                                                                                                                                                                                                                                      
21902014F4602419620724496R         VIDAL MARRADES, VICENTE                 46H01 00000000305000000000000610 0000000000000000000000000000000000000000000000000         0000000000000000000000000000000000000000000000000000000000000000000000000000000000000000                                                                                                                                                                                                                                                      
21902014F4602419620725805E         ARGENTE SANJUAN, VICENTE                46H01 00000000325740000000000651 0000000000000000000000000000000000000000000000000         0000000000000000000000000000000000000000000000000000000000000000000000000000000000000000                                                                                                                                                                                                                                                      
21902014F4602419620728957T         PAU COLLADO, CONSUELO                   46H01 00000000106180000000000212 0000000000000000000000000000000000000000000000000         0000000000000000000000000000000000000000000000000000000000000000000000000000000000000000                                                                                                                                                                                                                                                      
21902014F4602419620731213W         MOLINES MARTINEZ, ANTONIO               46H01 00000000048780000000000098 0000000000000000000000000000000000000000000000000         0000000000000000000000000000000000000000000000000000000000000000000000000000000000000000                                                                                                                                                                                                                                                      
21902014F4602419620733368H         BONO BOTELLA, ANGELES                   46H01 00000001381780000000002764 0000000000000000000000000000000000000000000000000         0000000000000000000000000000000000000000000000000000000000000000000000000000000000000000                                                                                                                                                                                                                                                      
21902014F4602419620733882A         ANDRES VILA, JOSE                       46H01 00000000038660000000000077 0000000000000000000000000000000000000000000000000         0000000000000000000000000000000000000000000000000000000000000000000000000000000000000000                                                                                                                                                                                                                                                      
21902014F4602419620733932F         GARES CEBALLOS, JOSE                    46H01 00000000040290000000000081 0000000000000000000000000000000000000000000000000         0000000000000000000000000000000000000000000000000000000000000000000000000000000000000000                                                                                                                                                                                                                                                      
21902014F4602419620734090G         BOIX ROCA, AMPARO                       46H01 00000000958460000000001917 0000000000000000000000000000000000000000000000000         0000000000000000000000000000000000000000000000000000000000000000000000000000000000000000                                                                                                                                                                                                                                                      
21902014F4602419620734183M         SANTAEULALIA CARBO, RICARDO             46H01 00000000030760000000000062 0000000000000000000000000000000000000000000000000         0000000000000000000000000000000000000000000000000000000000000000000000000000000000000000                                                                                                                                                                                                                                                      
21902014F4602419620738355Z         GARRIGUES BORRAS, VICENTE               46H01 00000000554780000000001109 0000000000000000000000000000000000000000000000000         0000000000000000000000000000000000000000000000000000000000000000000000000000000000000000                                                                                                                                                                                                                                                      
21902014F4602419620738554Y         GIRBES CARBONELL, BERNARDO              46H01 00000000120880000000000242 0000000000000000000000000000000000000000000000000         0000000000000000000000000000000000000000000000000000000000000000000000000000000000000000                                                                                                                                                                                                                                                      
21902014F4602419620738710R         ESCANDELL BAÑULS, SALVADOR              46H01 00000000206960000000000414 0000000000000000000000000000000000000000000000000         0000000000000000000000000000000000000000000000000000000000000000000000000000000000000000                                                                                                                                                                                                                                                      
21902014F4602419620739736S         SALOM PALOP, JOSE ANTONIO               46H01 00000004746350000000009493 0000000000000000000000000000000000000000000000000         0000000000000000000000000000000000000000000000000000000000000000000000000000000000000000                                                                                                                                                                                                                                                      
21902014F4602419620741814T         GARI MONTRULL, JOSE                     46H01 00000000323950000000000648 0000000000000000000000000000000000000000000000000         0000000000000000000000000000000000000000000000000000000000000000000000000000000000000000                                                                                                                                                                                                                                                      
21902014F4602419620742652X         JOVER PASTOR, JUAN BAUTISTA             46H01 00000000585300000000001170 0000000000000000000000000000000000000000000000000         0000000000000000000000000000000000000000000000000000000000000000000000000000000000000000                                                                                                                                                                                                                                                      
21902014F4602419620744476V         ESTEVE LLOPIS, SALVADOR                 46H01 00000000085110000000000171 0000000000000000000000000000000000000000000000000         0000000000000000000000000000000000000000000000000000000000000000000000000000000000000000                                                                                                                                                                                                                                                      
21902014F4602419620745896B         CASTELLO BERTOMEU, VICENTE              46H01 00000000020620000000000041 0000000000000000000000000000000000000000000000000         0000000000000000000000000000000000000000000000000000000000000000000000000000000000000000                                                                                                                                                                                                                                                      
21902014F4602419620745909R         PERIS MARTI, JUAN ANTONIO               46H01 00000000052510000000000105 0000000000000000000000000000000000000000000000000         0000000000000000000000000000000000000000000000000000000000000000000000000000000000000000                                                                                                                                                                                                                                                      
21902014F4602419620746264B         VIDAL LLINARES, EDUARDO                 46H01 00000000072580000000000145 0000000000000000000000000000000000000000000000000         0000000000000000000000000000000000000000000000000000000000000000000000000000000000000000                                                                                                                                                                                                                                                      
21902014F4602419620746616H         OLIVER CERDA, ANTONIO                   46H01 00000000301370000000000603 0000000000000000000000000000000000000000000000000         0000000000000000000000000000000000000000000000000000000000000000000000000000000000000000                                                                                                                                                                                                                                                      
21902014F4602419620747092B         CORTELL LOPEZ, ANGEL                    46H01 00000000008250000000000017 0000000000000000000000000000000000000000000000000         0000000000000000000000000000000000000000000000000000000000000000000000000000000000000000                                                                                                                                                                                                                                                      
21902014F4602419620747645N         MONTALVA PALAU, RODOLFO                 46H01 00000000615080000000001230 0000000000000000000000000000000000000000000000000         0000000000000000000000000000000000000000000000000000000000000000000000000000000000000000                                                                                                                                                                                                                                                      
21902014F4602419620747650V         FERRER CAMPOS, AGUSTIN                  46H01 00000000469470000000000939 0000000000000000000000000000000000000000000000000         0000000000000000000000000000000000000000000000000000000000000000000000000000000000000000                                                                                                                                                                                                                                                      
21902014F4602419620747654K         LOPEZ NAVALON, URSULA                   46H01 00000000229960000000000459 0000000000000000000000000000000000000000000000000         0000000000000000000000000000000000000000000000000000000000000000000000000000000000000000                                                                                                                                                                                                                                                      
21902014F4602419620747887R         MARTI MARIN, SALVADOR                   46H01 00000000382060000000000764 0000000000000000000000000000000000000000000000000         0000000000000000000000000000000000000000000000000000000000000000000000000000000000000000                                                                                                                                                                                                                                                      
21902014F4602419620748742M         FUSTER MAÑEZ, MIGUEL                    46H01 00000000005670000000000011 0000000000000000000000000000000000000000000000000         0000000000000000000000000000000000000000000000000000000000000000000000000000000000000000                                                                                                                                                                                                                                                      
21902014F4602419620752069C         SANCHIS IÑIGO, JOSE                     46H01 00000000490430000000000981 0000000000000000000000000000000000000000000000000         0000000000000000000000000000000000000000000000000000000000000000000000000000000000000000                                                                                                                                                                                                                                                      
21902014F4602419620752076G         PIERA ESTEVE, JOSE RICARDO              46H01 00000000094980000000000190 0000000000000000000000000000000000000000000000000         0000000000000000000000000000000000000000000000000000000000000000000000000000000000000000                                                                                                                                                                                                                                                      
21902014F4602419620752303R         MAGRANER ROSELL, BERNARDO               46H01 00000000249660000000000499 0000000000000000000000000000000000000000000000000         0000000000000000000000000000000000000000000000000000000000000000000000000000000000000000                                                                                                                                                                                                                                                      
21902014F4602419620753421S         MOLTO CORTES, VICENTE                   46H01 00000000110000000000000220 0000000000000000000000000000000000000000000000000         0000000000000000000000000000000000000000000000000000000000000000000000000000000000000000                                                                                                                                                                                                                                                      
21902014F4602419620753475T         REQUENA VIDAL, GABRIEL                  46H01 00000000293740000000000588 0000000000000000000000000000000000000000000000000         0000000000000000000000000000000000000000000000000000000000000000000000000000000000000000                                                                                                                                                                                                                                                      
21902014F4602419620754699M         CUESTA FONTANA, SALVADOR VICENTE        46H01 00000000284020000000000568 0000000000000000000000000000000000000000000000000         0000000000000000000000000000000000000000000000000000000000000000000000000000000000000000                                                                                                                                                                                                                                                      
21902014F4602419620754716E         PEREZ CALAFAT, JOSE RICARDO             46H01 00000000186680000000000373 0000000000000000000000000000000000000000000000000         0000000000000000000000000000000000000000000000000000000000000000000000000000000000000000                                                                                                                                                                                                                                                      
21902014F4602419620754763T         SANJUAN RUBIO, VICENTE JOSE             46H01 00000000113500000000000227 0000000000000000000000000000000000000000000000000         0000000000000000000000000000000000000000000000000000000000000000000000000000000000000000                                                                                                                                                                                                                                                      
21902014F4602419620754960J         APARISI BONO, ENRIQUE                   46H01 00000000321160000000000642 0000000000000000000000000000000000000000000000000         0000000000000000000000000000000000000000000000000000000000000000000000000000000000000000                                                                                                                                                                                                                                                      
21902014F4602419620755187X         GIMENEZ PLA, SALVADOR                   46H01 00000000168450000000000337 0000000000000000000000000000000000000000000000000         0000000000000000000000000000000000000000000000000000000000000000000000000000000000000000                                                                                                                                                                                                                                                      
21902014F4602419620755756G         GRACIA PRADO, MARIA DE LOS SANTOS       46H01 00000001430660000000002861 0000000000000000000000000000000000000000000000000         0000000000000000000000000000000000000000000000000000000000000000000000000000000000000000                                                                                                                                                                                                                                                      
21902014F4602419620756273S         NOGUES ROIG, CARMEN                     46H01 00000000129890000000000260 0000000000000000000000000000000000000000000000000         0000000000000000000000000000000000000000000000000000000000000000000000000000000000000000                                                                                                                                                                                                                                                      
21902014F4602419620757140P         FAYOS CASTERA, FRANCISCO                46H01 00000000172310000000000345 0000000000000000000000000000000000000000000000000         0000000000000000000000000000000000000000000000000000000000000000000000000000000000000000                                                                                                                                                                                                                                                      
21902014F4602419620757192Z         CAMARASA OLIVER, BERNAT                 46H01 00000004036810000000008075 0000000000000000000000000000000000000000000000000         0000000000000000000000000000000000000000000000000000000000000000000000000000000000000000                                                                                                                                                                                                                                                      
21902014F4602419620757221C         ALBELDA PEREZ, JUAN                     46H01 00000000207320000000000415 0000000000000000000000000000000000000000000000000         0000000000000000000000000000000000000000000000000000000000000000000000000000000000000000                                                                                                                                                                                                                                                      
21902014F4602419620758142K         GARES AMAT, JOSE                        46H01 00000000198320000000000397 0000000000000000000000000000000000000000000000000         0000000000000000000000000000000000000000000000000000000000000000000000000000000000000000                                                                                                                                                                                                                                                      
21902014F4602419620758634F         VELA LOPEZ, JULIAN                      46H01 00000000695290000000001392 0000000000000000000000000000000000000000000000000         0000000000000000000000000000000000000000000000000000000000000000000000000000000000000000                                                                                                                                                                                                                                                      
21902014F4602419620758923C         VIDAL GARCIA, MARIA                     46H01 00000000285810000000000572 0000000000000000000000000000000000000000000000000         0000000000000000000000000000000000000000000000000000000000000000000000000000000000000000                                                                                                                                                                                                                                                      
21902014F4602419620759407K         ALMUNIA BOTELLA, FRANCISCO              46H01 00000000452110000000000905 0000000000000000000000000000000000000000000000000         0000000000000000000000000000000000000000000000000000000000000000000000000000000000000000                                                                                                                                                                                                                                                      
21902014F4602419620759687W         MASIA CORTES, ENRIQUE                   46H01 00000000048650000000000097 0000000000000000000000000000000000000000000000000         0000000000000000000000000000000000000000000000000000000000000000000000000000000000000000                                                                                                                                                                                                                                                      
21902014F4602419620759993D         CALATAYUD BALDOVI, ENRIQUE              46H01 00000000015940000000000032 0000000000000000000000000000000000000000000000000         0000000000000000000000000000000000000000000000000000000000000000000000000000000000000000                                                                                                                                                                                                                                                      
21902014F4602419620760011G         CARBONELL PONS, VICENTE                 46H01 00000000010840000000000022 0000000000000000000000000000000000000000000000000         0000000000000000000000000000000000000000000000000000000000000000000000000000000000000000                                                                                                                                                                                                                                                      
21902014F4602419620760498P         GARCIA CHAFES, JOSE                     46H01 00000000039390000000000079 0000000000000000000000000000000000000000000000000         0000000000000000000000000000000000000000000000000000000000000000000000000000000000000000                                                                                                                                                                                                                                                      
21902014F4602419620760900L         GARES MOLTO, BERNARDO                   46H01 00000000129380000000000259 0000000000000000000000000000000000000000000000000         0000000000000000000000000000000000000000000000000000000000000000000000000000000000000000                                                                                                                                                                                                                                                      
21902014F4602419620761223C         ALBEROLA CAMARENA, BAUTISTA             46H01 00000000022250000000000045 0000000000000000000000000000000000000000000000000         0000000000000000000000000000000000000000000000000000000000000000000000000000000000000000                                                                                                                                                                                                                                                      
21902014F4602419620761373D         CALVO JUAN, JOSEFA                      46H01 00000000072400000000000145 0000000000000000000000000000000000000000000000000         0000000000000000000000000000000000000000000000000000000000000000000000000000000000000000                                                                                                                                                                                                                                                      
21902014F4602419620761395P         ALBORT VILLALBA, BERNARDO               46H01 00000000980160000000001960 0000000000000000000000000000000000000000000000000         0000000000000000000000000000000000000000000000000000000000000000000000000000000000000000                                                                                                                                                                                                                                                      
21902014F4602419620761453C         ALEIXANDRE PARDO, ENRIQUE               46H01 00000001813300000000003627 0000000000000000000000000000000000000000000000000         0000000000000000000000000000000000000000000000000000000000000000000000000000000000000000                                                                                                                                                                                                                                                      
21902014F4602419620762288G         FERRI GIL, JUAN                         46H01 00000000454900000000000910 0000000000000000000000000000000000000000000000000         0000000000000000000000000000000000000000000000000000000000000000000000000000000000000000                                                                                                                                                                                                                                                      
21902014F4602419620762399T         GARES AMAT, RAFAEL                      46H01 00000000885310000000001771 0000000000000000000000000000000000000000000000000         0000000000000000000000000000000000000000000000000000000000000000000000000000000000000000                                                                                                                                                                                                                                                      
21902014F4602419620762922V         ANDRES PALACIOS, PASCUAL                46H01 00000000188510000000000377 0000000000000000000000000000000000000000000000000         0000000000000000000000000000000000000000000000000000000000000000000000000000000000000000                                                                                                                                                                                                                                                      
21902014F4602419620762981F         PASCUAL LLINARES, M. DEL ROSARIO        46H01 00000000122850000000000246 0000000000000000000000000000000000000000000000000         0000000000000000000000000000000000000000000000000000000000000000000000000000000000000000                                                                                                                                                                                                                                                      
21902014F4602419620763416M         SALVADOR GRANERO, BIENVENIDA            46H01 00000000706940000000001415 0000000000000000000000000000000000000000000000000         0000000000000000000000000000000000000000000000000000000000000000000000000000000000000000                                                                                                                                                                                                                                                      
21902014F4602419620763590H         VIDAL ESPAÑA, RAFAEL                    46H01 00000001559680000000003120 0000000000000000000000000000000000000000000000000         0000000000000000000000000000000000000000000000000000000000000000000000000000000000000000                                                                                                                                                                                                                                                      
21902014F4602419620763822C         FILLOL MORANT, ALFREDO                  46H01 00000000705060000000001410 0000000000000000000000000000000000000000000000000         0000000000000000000000000000000000000000000000000000000000000000000000000000000000000000                                                                                                                                                                                                                                                      
21902014F4602419620764239T         MONTALBAN SERRANO, FELIPE               46H01 00000000089760000000000180 0000000000000000000000000000000000000000000000000         0000000000000000000000000000000000000000000000000000000000000000000000000000000000000000                                                                                                                                                                                                                                                      
21902014F4602419620764380A         ESPAÑA SOLER, MARIA AMPARO              46H01 00000000018820000000000038 0000000000000000000000000000000000000000000000000         0000000000000000000000000000000000000000000000000000000000000000000000000000000000000000                                                                                                                                                                                                                                                      
21902014F4602419620764384F         RAMIREZ FERRER, SALVADOR                46H01 00000000059940000000000120 0000000000000000000000000000000000000000000000000         0000000000000000000000000000000000000000000000000000000000000000000000000000000000000000                                                                                                                                                                                                                                                      
21902014F4602419620764477P         GOMIS MIR, JOSE JUAN                    46H01 00000000454300000000000909 0000000000000000000000000000000000000000000000000         0000000000000000000000000000000000000000000000000000000000000000000000000000000000000000                                                                                                                                                                                                                                                      
21902014F4602419620764596N         ALABORT MARTI, VICENTE                  46H01 00000001220640000000002441 0000000000000000000000000000000000000000000000000         0000000000000000000000000000000000000000000000000000000000000000000000000000000000000000                                                                                                                                                                                                                                                      
21902014F4602419620765902F         GARCIA GINER, AMPARO                    46H01 00000000007660000000000015 0000000000000000000000000000000000000000000000000         0000000000000000000000000000000000000000000000000000000000000000000000000000000000000000                                                                                                                                                                                                                                                      
21902014F4602419620766054K         CLARI SIFRE, JOSE LUIS                  46H01 00000001841400000000003683 0000000000000000000000000000000000000000000000000         0000000000000000000000000000000000000000000000000000000000000000000000000000000000000000                                                                                                                                                                                                                                                      
21902014F4602419620766099C         VALSALOBRE NAVARRO, ANGEL               46H01 00000000061400000000000123 0000000000000000000000000000000000000000000000000         0000000000000000000000000000000000000000000000000000000000000000000000000000000000000000                                                                                                                                                                                                                                                      
21902014F4602419620766197A         TORRES MINGUEZ, EMILIA DE LA CRUZ       46H01 00000000103760000000000207 0000000000000000000000000000000000000000000000000         0000000000000000000000000000000000000000000000000000000000000000000000000000000000000000                                                                                                                                                                                                                                                      
21902014F4602419620766256Q         MARTINEZ ARBONA, JOSE LUIS              46H01 00000000031170000000000062 0000000000000000000000000000000000000000000000000         0000000000000000000000000000000000000000000000000000000000000000000000000000000000000000                                                                                                                                                                                                                                                      
21902014F4602419620766303V         HERNANDEZ NAVARRO, JOSEFA               46H01 00000000561850000000001123 0000000000000000000000000000000000000000000000000         0000000000000000000000000000000000000000000000000000000000000000000000000000000000000000                                                                                                                                                                                                                                                      
21902014F4602419620766392Z         SANCHIS VALIENTE, ENRIQUE               46H01 00000000056830000000000114 0000000000000000000000000000000000000000000000000         0000000000000000000000000000000000000000000000000000000000000000000000000000000000000000                                                                                                                                                                                                                                                      
21902014F4602419620766881C         PEREPEREZ PAU, CONCEPCION               46H01 00000000280780000000000562 0000000000000000000000000000000000000000000000000         0000000000000000000000000000000000000000000000000000000000000000000000000000000000000000                                                                                                                                                                                                                                                      
21902014F4602419620767406Q         MIRA FORQUET, JUAN BAUTISTA             46H01 00000000048630000000000097 0000000000000000000000000000000000000000000000000         0000000000000000000000000000000000000000000000000000000000000000000000000000000000000000                                                                                                                                                                                                                                                      
21902014F4602419620767676X         TORMOS CASTELLO, RAFAEL                 46H01 00000003541990000000007084 0000000000000000000000000000000000000000000000000         0000000000000000000000000000000000000000000000000000000000000000000000000000000000000000                                                                                                                                                                                                                                                      
21902014F4602419620767841Z         MONTAÑANA PIERA, MARIA ISABEL           46H01 00000000009710000000000019 0000000000000000000000000000000000000000000000000         0000000000000000000000000000000000000000000000000000000000000000000000000000000000000000                                                                                                                                                                                                                                                      
21902014F4602419620768182X         TOMAS CLARAMONTE, JOSE VICENTE          46H01 00000000965870000000001932 0000000000000000000000000000000000000000000000000         0000000000000000000000000000000000000000000000000000000000000000000000000000000000000000                                                                                                                                                                                                                                                      
21902014F4602419620768557V         PASCUAL LLINARES, JUAN ANTONIO          46H01 00000000123030000000000246 0000000000000000000000000000000000000000000000000         0000000000000000000000000000000000000000000000000000000000000000000000000000000000000000                                                                                                                                                                                                                                                      
21902014F4602419620768629C         PELLICER ARMENGOL, VICENTE JOSE         46H01 00000000124290000000000249 0000000000000000000000000000000000000000000000000         0000000000000000000000000000000000000000000000000000000000000000000000000000000000000000                                                                                                                                                                                                                                                      
21902014F4602419620768898J         IBORRA LLINARES, SALVADOR BERNARDO      46H01 00000000189970000000000380 0000000000000000000000000000000000000000000000000         0000000000000000000000000000000000000000000000000000000000000000000000000000000000000000                                                                                                                                                                                                                                                      
21902014F4602419620771143G         FERRUS LLACER, ISABEL                   46H01 00000000157210000000000315 0000000000000000000000000000000000000000000000000         0000000000000000000000000000000000000000000000000000000000000000000000000000000000000000                                                                                                                                                                                                                                                      
21902014F4602419620771610B         CALATAYUD MASIA, RAFAEL                 46H01 00000000134030000000000268 0000000000000000000000000000000000000000000000000         0000000000000000000000000000000000000000000000000000000000000000000000000000000000000000                                                                                                                                                                                                                                                      
21902014F4602419620771925G         MARTI LLOPIS, RAMON                     46H01 00000000068950000000000137 0000000000000000000000000000000000000000000000000         0000000000000000000000000000000000000000000000000000000000000000000000000000000000000000                                                                                                                                                                                                                                                      
21902014F4602419620772002N         IBAÑEZ NARANJO, ANTONIO                 46H01 00000000771110000000001541 0000000000000000000000000000000000000000000000000         0000000000000000000000000000000000000000000000000000000000000000000000000000000000000000                                                                                                                                                                                                                                                      
21902014F4602419620772013T         CAMARENA PUCHALT, VICENTE               46H01 00000002811550000000005623 0000000000000000000000000000000000000000000000000         0000000000000000000000000000000000000000000000000000000000000000000000000000000000000000                                                                                                                                                                                                                                                      
21902014F4602419620772021P         RUIZ CAÑES, DIONISIO                    46H01 00000000549140000000001098 0000000000000000000000000000000000000000000000000         0000000000000000000000000000000000000000000000000000000000000000000000000000000000000000                                                                                                                                                                                                                                                      
21902014F4602419620772181F         CARBONELL BERTOMEU, ENRIQUE             46H01 00000000047110000000000094 0000000000000000000000000000000000000000000000000         0000000000000000000000000000000000000000000000000000000000000000000000000000000000000000                                                                                                                                                                                                                                                      
21902014F4602419620772191V         GRACIA ESCRIHUELA, JUAN                 46H01 00000000453780000000000907 0000000000000000000000000000000000000000000000000         0000000000000000000000000000000000000000000000000000000000000000000000000000000000000000                                                                                                                                                                                                                                                      
21902014F4602419620772373S         GARCIA BOLUDA, CONCEPCION               46H01 00000000057550000000000115 0000000000000000000000000000000000000000000000000         0000000000000000000000000000000000000000000000000000000000000000000000000000000000000000                                                                                                                                                                                                                                                      
21902014F4602419620773009F         RAMOS MENGUAL, M. TERESA                46H01 00000000285650000000000572 0000000000000000000000000000000000000000000000000         0000000000000000000000000000000000000000000000000000000000000000000000000000000000000000                                                                                                                                                                                                                                                      
21902014F4602419620773394R         RUIZ MONTERO, AGUSTIN                   46H01 00000000907870000000001814 0000000000000000000000000000000000000000000000000         0000000000000000000000000000000000000000000000000000000000000000000000000000000000000000                                                                                                                                                                                                                                                      
21902014F4602419620774225G         CLIMENT PLAZA, SALVADOR                 46H01 00000000049830000000000100 0000000000000000000000000000000000000000000000000         0000000000000000000000000000000000000000000000000000000000000000000000000000000000000000                                                                                                                                                                                                                                                      
21902014F4602419620774523A         FERRER PARDO, BAUTISTA                  46H01 00000001113390000000002226 0000000000000000000000000000000000000000000000000         0000000000000000000000000000000000000000000000000000000000000000000000000000000000000000                                                                                                                                                                                                                                                      
21902014F4602419620776346D         GONZALEZ CASTANY, MARIA CONSUELO        46H01 00000000052160000000000104 0000000000000000000000000000000000000000000000000         0000000000000000000000000000000000000000000000000000000000000000000000000000000000000000                                                                                                                                                                                                                                                      
21902014F4602419620776508X         ARNANDIS ROIG, AMPARO                   46H01 00000000243890000000000488 0000000000000000000000000000000000000000000000000         0000000000000000000000000000000000000000000000000000000000000000000000000000000000000000                                                                                                                                                                                                                                                      
21902014F4602419620777632F         GISBERT SANMARTIN, SALVADOR             46H01 00000000082770000000000166 0000000000000000000000000000000000000000000000000         0000000000000000000000000000000000000000000000000000000000000000000000000000000000000000                                                                                                                                                                                                                                                      
21902014F4602419620777928G         BELTRAN ANDREU, AMPARO                  46H01 00000000023210000000000046 0000000000000000000000000000000000000000000000000         0000000000000000000000000000000000000000000000000000000000000000000000000000000000000000                                                                                                                                                                                                                                                      
21902014F4602419620778006J         MOLL CAMPS, MARGARITA                   46H01 00000000033260000000000067 0000000000000000000000000000000000000000000000000         0000000000000000000000000000000000000000000000000000000000000000000000000000000000000000                                                                                                                                                                                                                                                      
21902014F4602419620780319A         MONTAGUD MURILLO, RAFAEL                46H01 00000000320860000000000642 0000000000000000000000000000000000000000000000000         0000000000000000000000000000000000000000000000000000000000000000000000000000000000000000                                                                                                                                                                                                                                                      
21902014F4602419620780729E         BARBER MOLL, BERNARDO                   46H01 00000000236170000000000472 0000000000000000000000000000000000000000000000000         0000000000000000000000000000000000000000000000000000000000000000000000000000000000000000                                                                                                                                                                                                                                                      
21902014F4602419620780756A         AMAT SOLER, RICARDO                     46H01 00000002249690000000004498 0000000000000000000000000000000000000000000000000         0000000000000000000000000000000000000000000000000000000000000000000000000000000000000000                                                                                                                                                                                                                                                      
21902014F4602419620781219Y         MARTINEZ BERNAT, M. CARMEN              46H01 00000001115650000000002232 0000000000000000000000000000000000000000000000000         0000000000000000000000000000000000000000000000000000000000000000000000000000000000000000                                                                                                                                                                                                                                                      
21902014F4602419620781758Q         FERRER IBAÑEZ, VICENTE JOSE             46H01 00000000325000000000000650 0000000000000000000000000000000000000000000000000         0000000000000000000000000000000000000000000000000000000000000000000000000000000000000000                                                                                                                                                                                                                                                      
21902014F4602419620782844K         SANJUAN SORIA, MARIA CARMEN             46H01 00000000642860000000001286 0000000000000000000000000000000000000000000000000         0000000000000000000000000000000000000000000000000000000000000000000000000000000000000000                                                                                                                                                                                                                                                      
21902014F4602419620783036Y         RUBIO BOIX, SALVADOR                    46H01 00000000066550000000000133 0000000000000000000000000000000000000000000000000         0000000000000000000000000000000000000000000000000000000000000000000000000000000000000000                                                                                                                                                                                                                                                      
21902014F4602419620783371L         FERRANDO CAMARENA, JOSE                 46H01 00000000708790000000001417 0000000000000000000000000000000000000000000000000         0000000000000000000000000000000000000000000000000000000000000000000000000000000000000000                                                                                                                                                                                                                                                      
21902014F4602419620783445R         ASENSIO SANGIL, JOSE AGUSTIN            46H01 00000000175280000000000351 0000000000000000000000000000000000000000000000000         0000000000000000000000000000000000000000000000000000000000000000000000000000000000000000                                                                                                                                                                                                                                                      
21902014F4602419620784159W         CLARI ESPAÑA, SALVADOR                  46H01 00000000082110000000000165 0000000000000000000000000000000000000000000000000         0000000000000000000000000000000000000000000000000000000000000000000000000000000000000000                                                                                                                                                                                                                                                      
21902014F4602419620784745J         APARISI SERRA, M.DOLORES                46H01 00000000026680000000000053 0000000000000000000000000000000000000000000000000         0000000000000000000000000000000000000000000000000000000000000000000000000000000000000000                                                                                                                                                                                                                                                      
21902014F4602419620785472G         FLOR RAMON, RAMON                       46H01 00000000400940000000000802 0000000000000000000000000000000000000000000000000         0000000000000000000000000000000000000000000000000000000000000000000000000000000000000000                                                                                                                                                                                                                                                      
21902014F4602419620785597Z         TALENS NOGUERA, JOSE FRANCISCO          46H01 00000000013130000000000026 0000000000000000000000000000000000000000000000000         0000000000000000000000000000000000000000000000000000000000000000000000000000000000000000                                                                                                                                                                                                                                                      
21902014F4602419620785966S         MOTILLA ALCOY, JOSE LUIS                46H01 00000000044280000000000089 0000000000000000000000000000000000000000000000000         0000000000000000000000000000000000000000000000000000000000000000000000000000000000000000                                                                                                                                                                                                                                                      
21902014F4602419620786029D         CARBONERES GARCIA, MARIA JOSE           46H01 00000001471450000000002943 0000000000000000000000000000000000000000000000000         0000000000000000000000000000000000000000000000000000000000000000000000000000000000000000                                                                                                                                                                                                                                                      
21902014F4602419620786352X         PASCUAL MONTEJANO, JUAN                 46H01 00000000655180000000001310 0000000000000000000000000000000000000000000000000         0000000000000000000000000000000000000000000000000000000000000000000000000000000000000000                                                                                                                                                                                                                                                      
21902014F4602419620787129M         PRATS PARDO, JORGE                      46H01 00000000074560000000000149 0000000000000000000000000000000000000000000000000         0000000000000000000000000000000000000000000000000000000000000000000000000000000000000000                                                                                                                                                                                                                                                      
21902014F4602419620789015M         HERNANDIS MONT, JOSE RICARDO            46H01 00000000144170000000000289 0000000000000000000000000000000000000000000000000         0000000000000000000000000000000000000000000000000000000000000000000000000000000000000000                                                                                                                                                                                                                                                      
21902014F4602419620789031K         IÑIGO LUIS, FERNANDO                    46H01 00000003920000000000007840 0000000000000000000000000000000000000000000000000         0000000000000000000000000000000000000000000000000000000000000000000000000000000000000000                                                                                                                                                                                                                                                      
21902014F4602419620789424T         FERNANDEZ RODRIGUEZ, MIGUEL             46H01 00000001790730000000003582 0000000000000000000000000000000000000000000000000         0000000000000000000000000000000000000000000000000000000000000000000000000000000000000000                                                                                                                                                                                                                                                      
21902014F4602419620789980G         ESCANDELL CASTELLO, LUIS ENRIQUE        46H01 00000000093350000000000187 0000000000000000000000000000000000000000000000000         0000000000000000000000000000000000000000000000000000000000000000000000000000000000000000                                                                                                                                                                                                                                                      
21902014F4602419620790473Z         ALCAÑIZ DIAZ, JESUS                     46H01 00000000032920000000000066 0000000000000000000000000000000000000000000000000         0000000000000000000000000000000000000000000000000000000000000000000000000000000000000000                                                                                                                                                                                                                                                      
21902014F4602419620790600A         CABALLERO MASERES, BERNARDO             46H01 00000000401830000000000803 0000000000000000000000000000000000000000000000000         0000000000000000000000000000000000000000000000000000000000000000000000000000000000000000                                                                                                                                                                                                                                                      
21902014F4602419620791756D         MONTALVA ESPAÑA, ENRIQUE                46H01 00000000555660000000001111 0000000000000000000000000000000000000000000000000         0000000000000000000000000000000000000000000000000000000000000000000000000000000000000000                                                                                                                                                                                                                                                      
21902014F4602419620792161T         SANCHEZ GALLART, JOSE LUIS              46H01 00000000344010000000000688 0000000000000000000000000000000000000000000000000         0000000000000000000000000000000000000000000000000000000000000000000000000000000000000000                                                                                                                                                                                                                                                      
21902014F4602419620793016G         GOMEZ COTS, RAFAEL                      46H01 00000000568950000000001138 0000000000000000000000000000000000000000000000000         0000000000000000000000000000000000000000000000000000000000000000000000000000000000000000                                                                                                                                                                                                                                                      
21902014F4602419620793487S         CABALLERO MASERES, JUAN                 46H01 00000000401830000000000803 0000000000000000000000000000000000000000000000000         0000000000000000000000000000000000000000000000000000000000000000000000000000000000000000                                                                                                                                                                                                                                                      
21902014F4602419620794058B         RUBIO PRESENCIA, CONSUELO               46H01 00000000078250000000000157 0000000000000000000000000000000000000000000000000         0000000000000000000000000000000000000000000000000000000000000000000000000000000000000000                                                                                                                                                                                                                                                      
21902014F4602419620794984V         CUCARELLA PEREZ, FRANCISCO              46H01 00000000027250000000000055 0000000000000000000000000000000000000000000000000         0000000000000000000000000000000000000000000000000000000000000000000000000000000000000000                                                                                                                                                                                                                                                      
21902014F4602419620796129N         JUAN MARTI, FELIPE                      46H01 00000000100630000000000201 0000000000000000000000000000000000000000000000000         0000000000000000000000000000000000000000000000000000000000000000000000000000000000000000                                                                                                                                                                                                                                                      
